{
  "contractName": "WfcHelpRequestOrganizationsLogical",
  "abi": [
    {
      "constant": true,
      "inputs": [],
      "name": "wfcRegistry",
      "outputs": [
        {
          "name": "",
          "type": "address"
        }
      ],
      "payable": false,
      "stateMutability": "view",
      "type": "function"
    },
    {
      "constant": true,
      "inputs": [
        {
          "name": "",
          "type": "uint256"
        }
      ],
      "name": "storageContractName",
      "outputs": [
        {
          "name": "",
          "type": "bytes32"
        }
      ],
      "payable": false,
      "stateMutability": "view",
      "type": "function"
    },
    {
      "anonymous": false,
      "inputs": [
        {
          "indexed": true,
          "name": "_organizationAddress",
          "type": "address"
        },
        {
          "indexed": false,
          "name": "_dataUrl",
          "type": "string"
        }
      ],
      "name": "RegistrationRequestLog",
      "type": "event"
    },
    {
      "anonymous": false,
      "inputs": [
        {
          "indexed": true,
          "name": "_organizationAddress",
          "type": "address"
        }
      ],
      "name": "RegistrationApproved",
      "type": "event"
    },
    {
      "anonymous": false,
      "inputs": [
        {
          "indexed": true,
          "name": "_organizationAddress",
          "type": "address"
        }
      ],
      "name": "RegistrationRefused",
      "type": "event"
    },
    {
      "anonymous": false,
      "inputs": [
        {
          "indexed": true,
          "name": "_organizationAddress",
          "type": "address"
        }
      ],
      "name": "RegistrationRevoked",
      "type": "event"
    },
    {
      "anonymous": false,
      "inputs": [
        {
          "indexed": true,
          "name": "_previousAddress",
          "type": "address"
        },
        {
          "indexed": true,
          "name": "_newAddress",
          "type": "address"
        }
      ],
      "name": "RegitrationChanged",
      "type": "event"
    },
    {
      "anonymous": false,
      "inputs": [
        {
          "indexed": true,
          "name": "_organizationAddress",
          "type": "address"
        }
      ],
      "name": "RegistrationBlocked",
      "type": "event"
    },
    {
      "anonymous": false,
      "inputs": [
        {
          "indexed": true,
          "name": "_organizationAddress",
          "type": "address"
        },
        {
          "indexed": false,
          "name": "_investigationDataUrl",
          "type": "string"
        }
      ],
      "name": "RequireDaoInvestigationLog",
      "type": "event"
    },
    {
      "anonymous": false,
      "inputs": [
        {
          "indexed": true,
          "name": "_organizationAddress",
          "type": "address"
        }
      ],
      "name": "InvestigationStop",
      "type": "event"
    },
    {
      "constant": false,
      "inputs": [
        {
          "name": "_dataUrl",
          "type": "string"
        },
        {
          "name": "_organizationAddress",
          "type": "address"
        }
      ],
      "name": "registrationRequest",
      "outputs": [],
      "payable": false,
      "stateMutability": "nonpayable",
      "type": "function"
    },
    {
      "constant": false,
      "inputs": [
        {
          "name": "_organizationAddress",
          "type": "address"
        }
      ],
      "name": "approveRequest",
      "outputs": [],
      "payable": false,
      "stateMutability": "nonpayable",
      "type": "function"
    },
    {
      "constant": false,
      "inputs": [
        {
          "name": "_organizationAddress",
          "type": "address"
        }
      ],
      "name": "refuseRequest",
      "outputs": [],
      "payable": false,
      "stateMutability": "nonpayable",
      "type": "function"
    },
    {
      "constant": false,
      "inputs": [],
      "name": "revokeAddress",
      "outputs": [],
      "payable": false,
      "stateMutability": "nonpayable",
      "type": "function"
    },
    {
      "constant": false,
      "inputs": [
        {
          "name": "_newOrganizationAddress",
          "type": "address"
        }
      ],
      "name": "changeAddress",
      "outputs": [],
      "payable": false,
      "stateMutability": "nonpayable",
      "type": "function"
    },
    {
      "constant": false,
      "inputs": [
        {
          "name": "_investigationDataUrl",
          "type": "string"
        },
        {
          "name": "_organizationAddress",
          "type": "address"
        }
      ],
      "name": "requireDaoInvestigation",
      "outputs": [],
      "payable": true,
      "stateMutability": "payable",
      "type": "function"
    },
    {
      "constant": false,
      "inputs": [
        {
          "name": "_organizationAddress",
          "type": "address"
        },
        {
          "name": "_isBlocked",
          "type": "bool"
        }
      ],
      "name": "voteDaoInvestigation",
      "outputs": [],
      "payable": false,
      "stateMutability": "nonpayable",
      "type": "function"
    },
    {
      "constant": false,
      "inputs": [
        {
          "name": "_newOrganizationAddress",
          "type": "address"
        }
      ],
      "name": "blockHackedAddress",
      "outputs": [],
      "payable": false,
      "stateMutability": "nonpayable",
      "type": "function"
    }
  ],
  "bytecode": "0x608060405234801561001057600080fd5b506125ad806100206000396000f3fe60806040526004361061008a5763ffffffff60e060020a600035041663061dff9a811461008f578063191f1723146100c4578063254f61181461014a57806349911a861461017b5780635a04ebd9146101ae5780637cfb861b14610227578063a38ce2b414610262578063e37a498614610277578063f34a5143146102b3578063fe64d6ff146102e6575b600080fd5b34801561009b57600080fd5b506100c2600480360360208110156100b257600080fd5b5035600160a060020a0316610319565b005b3480156100d057600080fd5b506100c2600480360360408110156100e757600080fd5b81019060208101813564010000000081111561010257600080fd5b82018360208201111561011457600080fd5b8035906020019184600183028401116401000000008311171561013657600080fd5b919350915035600160a060020a03166105f1565b34801561015657600080fd5b5061015f610881565b60408051600160a060020a039092168252519081900360200190f35b34801561018757600080fd5b506100c26004803603602081101561019e57600080fd5b5035600160a060020a0316610890565b6100c2600480360360408110156101c457600080fd5b8101906020810181356401000000008111156101df57600080fd5b8201836020820111156101f157600080fd5b8035906020019184600183028401116401000000008311171561021357600080fd5b919350915035600160a060020a0316610e5d565b34801561023357600080fd5b506100c26004803603604081101561024a57600080fd5b50600160a060020a0381351690602001351515611482565b34801561026e57600080fd5b506100c2611991565b34801561028357600080fd5b506102a16004803603602081101561029a57600080fd5b5035611b76565b60408051918252519081900360200190f35b3480156102bf57600080fd5b506100c2600480360360208110156102d657600080fd5b5035600160a060020a0316611b8a565b3480156102f257600080fd5b506100c26004803603602081101561030957600080fd5b5035600160a060020a0316611e62565b6000809054906101000a9004600160a060020a0316600160a060020a031663f270da7b6040518163ffffffff1660e060020a02815260040160206040518083038186803b15801561036957600080fd5b505afa15801561037d573d6000803e3d6000fd5b505050506040513d602081101561039357600080fd5b5051600160a060020a031633146103f4576040805160e560020a62461bcd02815260206004820152601f60248201527f53656e64657220646966666572656e742066726f6d2044616f206f776e657200604482015290519081900360640190fd5b60008054600160a060020a031663d59de86060018301546040518263ffffffff1660e060020a0281526004018082815260200191505060206040518083038186803b15801561044257600080fd5b505afa158015610456573d6000803e3d6000fd5b505050506040513d602081101561046c57600080fd5b50519050600181600160a060020a031663dc50b41d846040518263ffffffff1660e060020a0281526004018082600160a060020a0316600160a060020a0316815260200191505060206040518083038186803b1580156104cb57600080fd5b505afa1580156104df573d6000803e3d6000fd5b505050506040513d60208110156104f557600080fd5b50511461054c576040805160e560020a62461bcd02815260206004820152601960248201527f4f7267616e697a6174696f6e206e6f742070726f706f73656400000000000000604482015290519081900360640190fd5b6040805160e060020a63a4634517028152600160a060020a0384811660048301526002602483015291519183169163a46345179160448082019260009290919082900301818387803b1580156105a157600080fd5b505af11580156105b5573d6000803e3d6000fd5b5050604051600160a060020a03851692507f7af1c8fdc38642d406f2261b755d979a4baffaa73fc5b2901cb0dd2b5e5c1de49150600090a25050565b60008054600160a060020a031663d59de86060018301546040518263ffffffff1660e060020a0281526004018082815260200191505060206040518083038186803b15801561063f57600080fd5b505afa158015610653573d6000803e3d6000fd5b505050506040513d602081101561066957600080fd5b50519050600081600160a060020a031663dc50b41d846040518263ffffffff1660e060020a0281526004018082600160a060020a0316600160a060020a0316815260200191505060206040518083038186803b1580156106c857600080fd5b505afa1580156106dc573d6000803e3d6000fd5b505050506040513d60208110156106f257600080fd5b505114610749576040805160e560020a62461bcd02815260206004820152601d60248201527f4f7267616e697a6174696f6e20616c72656164792070726f706f736564000000604482015290519081900360640190fd5b600160a060020a038116632bbaa0c0838686600160405160e060020a63ffffffff8716028152600160a060020a038516600482019081526044820183905260006064830181905260a06024840190815260a484018690529092608481019060c401878780828437600081840152601f19601f820116905080830192505050838103825260008152602001602001975050505050505050600060405180830381600087803b1580156107f957600080fd5b505af115801561080d573d6000803e3d6000fd5b5050505081600160a060020a03167f6a7a397fc0847a420c76f715a0d8aa88b0722b6a00bd76573e42b7a2eca00ec6858560405180806020018281038252848482818152602001925080828437600083820152604051601f909101601f19169092018290039550909350505050a250505050565b600054600160a060020a031681565b60008054600160a060020a031663d59de86060018301546040518263ffffffff1660e060020a0281526004018082815260200191505060206040518083038186803b1580156108de57600080fd5b505afa1580156108f2573d6000803e3d6000fd5b505050506040513d602081101561090857600080fd5b505190506004604080517fdc50b41d0000000000000000000000000000000000000000000000000000000081523360048201529051600160a060020a0384169163dc50b41d916024808301926020929190829003018186803b15801561096d57600080fd5b505afa158015610981573d6000803e3d6000fd5b505050506040513d602081101561099757600080fd5b5051146109ee576040805160e560020a62461bcd02815260206004820152601f60248201527f4f7267616e697a6174696f6e2073656e646572206e6f74207265766f6b656400604482015290519081900360640190fd5b600281600160a060020a031663dc50b41d846040518263ffffffff1660e060020a0281526004018082600160a060020a0316600160a060020a0316815260200191505060206040518083038186803b158015610a4957600080fd5b505afa158015610a5d573d6000803e3d6000fd5b505050506040513d6020811015610a7357600080fd5b505114610aca576040805160e560020a62461bcd02815260206004820181905260248201527f4861636b6572206f7267616e697a6174696f6e206e6f7420617070726f766564604482015290519081900360640190fd5b80600160a060020a031663d369c5af836040518263ffffffff1660e060020a0281526004018082600160a060020a0316600160a060020a0316815260200191505060006040518083038186803b158015610b2357600080fd5b505afa158015610b37573d6000803e3d6000fd5b505050506040513d6000823e601f3d908101601f191682016040526020811015610b6057600080fd5b810190808051640100000000811115610b7857600080fd5b82016020810184811115610b8b57600080fd5b8151640100000000811182820187101715610ba557600080fd5b50509291905050506040516020018082805190602001908083835b60208310610bdf5780518252601f199092019160209182019101610bc0565b6001836020036101000a0380198251168184511680821785525050505050509050019150506040516020818303038152906040528051906020012081600160a060020a031663d369c5af336040518263ffffffff1660e060020a0281526004018082600160a060020a0316600160a060020a0316815260200191505060006040518083038186803b158015610c7357600080fd5b505afa158015610c87573d6000803e3d6000fd5b505050506040513d6000823e601f3d908101601f191682016040526020811015610cb057600080fd5b810190808051640100000000811115610cc857600080fd5b82016020810184811115610cdb57600080fd5b8151640100000000811182820187101715610cf557600080fd5b50509291905050506040516020018082805190602001908083835b60208310610d2f5780518252601f199092019160209182019101610d10565b6001836020036101000a03801982511681845116808217855250505050505090500191505060405160208183030381529060405280519060200120141515610dc1576040805160e560020a62461bcd02815260206004820152601460248201527f446966666572656e74206964656e746974696573000000000000000000000000604482015290519081900360640190fd5b6040805160e060020a63a4634517028152600160a060020a0384811660048301526005602483015291519183169163a46345179160448082019260009290919082900301818387803b158015610e1657600080fd5b505af1158015610e2a573d6000803e3d6000fd5b50506040513392507fb54203b449080e748e32acf72da61e951d028a328f26de3559d1f59bfd4e878a9150600090a25050565b60008054600160a060020a031663d59de86060018301546040518263ffffffff1660e060020a0281526004018082815260200191505060206040518083038186803b158015610eab57600080fd5b505afa158015610ebf573d6000803e3d6000fd5b505050506040513d6020811015610ed557600080fd5b50516000805491925090600160a060020a031663d59de8606001600301546040518263ffffffff1660e060020a0281526004018082815260200191505060206040518083038186803b158015610f2a57600080fd5b505afa158015610f3e573d6000803e3d6000fd5b505050506040513d6020811015610f5457600080fd5b505160408051808201909152601181527f496e7665737469676174696f6e436f737400000000000000000000000000000060208201529091506000610f98826124ef565b905082600160a060020a031663dce2dd17826040518263ffffffff1660e060020a0281526004018082815260200191505060206040518083038186803b158015610fe157600080fd5b505afa158015610ff5573d6000803e3d6000fd5b505050506040513d602081101561100b57600080fd5b50513411611063576040805160e560020a62461bcd02815260206004820181905260248201527f4e6f7420656e6f7567682065746820666f7220696e7665737469676174696f6e604482015290519081900360640190fd5b600284600160a060020a031663dc50b41d876040518263ffffffff1660e060020a0281526004018082600160a060020a0316600160a060020a0316815260200191505060206040518083038186803b1580156110be57600080fd5b505afa1580156110d2573d6000803e3d6000fd5b505050506040513d60208110156110e857600080fd5b50511461112d576040805160e560020a62461bcd0281526020600482015260196024820152600080516020612562833981519152604482015290519081900360640190fd5b83600160a060020a031663ecb121a6866040518263ffffffff1660e060020a0281526004018082600160a060020a0316600160a060020a0316815260200191505060206040518083038186803b15801561118657600080fd5b505afa15801561119a573d6000803e3d6000fd5b505050506040513d60208110156111b057600080fd5b50511561122d576040805160e560020a62461bcd02815260206004820152602860248201527f4f7267616e697a6174696f6e20616c726561647920756e64657220696e76657360448201527f7469676174696f6e000000000000000000000000000000000000000000000000606482015290519081900360840190fd5b604080517f65a27a60000000000000000000000000000000000000000000000000000000008152600160a060020a038781166004830152600160248301529151918616916365a27a609160448082019260009290919082900301818387803b15801561129857600080fd5b505af11580156112ac573d6000803e3d6000fd5b5050505083600160a060020a031663c92f0d128689896040518463ffffffff1660e060020a0281526004018084600160a060020a0316600160a060020a03168152602001806020018281038252848482818152602001925080828437600081840152601f19601f820116905080830192505050945050505050600060405180830381600087803b15801561133f57600080fd5b505af1158015611353573d6000803e3d6000fd5b505060008054909250600160a060020a0316905063d59de8606001600201546040518263ffffffff1660e060020a0281526004018082815260200191505060206040518083038186803b1580156113a957600080fd5b505afa1580156113bd573d6000803e3d6000fd5b505050506040513d60208110156113d357600080fd5b5051604051909150600160a060020a038216903480156108fc02916000818181858888f1935050505015801561140d573d6000803e3d6000fd5b5085600160a060020a03167f5d8f648088ae845206f8633df74df1db2ba5ddde7de896de2ea1f8393ff6810b898960405180806020018281038252848482818152602001925080828437600083820152604051601f909101601f19169092018290039550909350505050a25050505050505050565b6000809054906101000a9004600160a060020a0316600160a060020a031663f270da7b6040518163ffffffff1660e060020a02815260040160206040518083038186803b1580156114d257600080fd5b505afa1580156114e6573d6000803e3d6000fd5b505050506040513d60208110156114fc57600080fd5b5051600160a060020a0316331461155d576040805160e560020a62461bcd02815260206004820152601f60248201527f53656e64657220646966666572656e742066726f6d2044616f206f776e657200604482015290519081900360640190fd5b60008054600160a060020a031663d59de86060018301546040518263ffffffff1660e060020a0281526004018082815260200191505060206040518083038186803b1580156115ab57600080fd5b505afa1580156115bf573d6000803e3d6000fd5b505050506040513d60208110156115d557600080fd5b50519050600281600160a060020a031663dc50b41d856040518263ffffffff1660e060020a0281526004018082600160a060020a0316600160a060020a0316815260200191505060206040518083038186803b15801561163457600080fd5b505afa158015611648573d6000803e3d6000fd5b505050506040513d602081101561165e57600080fd5b5051146116a3576040805160e560020a62461bcd0281526020600482015260196024820152600080516020612562833981519152604482015290519081900360640190fd5b80600160a060020a031663ecb121a6846040518263ffffffff1660e060020a0281526004018082600160a060020a0316600160a060020a0316815260200191505060206040518083038186803b1580156116fc57600080fd5b505afa158015611710573d6000803e3d6000fd5b505050506040513d602081101561172657600080fd5b505115156117a4576040805160e560020a62461bcd02815260206004820152602760248201527f4f7267616e697a6174696f6e206973206e6f7420756e64657220696e7665737460448201527f69676174696f6e00000000000000000000000000000000000000000000000000606482015290519081900360840190fd5b8115611850576040805160e060020a63a4634517028152600160a060020a0385811660048301526005602483015291519183169163a46345179160448082019260009290919082900301818387803b1580156117ff57600080fd5b505af1158015611813573d6000803e3d6000fd5b5050604051600160a060020a03861692507fb54203b449080e748e32acf72da61e951d028a328f26de3559d1f59bfd4e878a9150600090a261198c565b604080517f65a27a60000000000000000000000000000000000000000000000000000000008152600160a060020a0385811660048301526000602483018190529251908416926365a27a60926044808201939182900301818387803b1580156118b857600080fd5b505af11580156118cc573d6000803e3d6000fd5b5050604080517fc92f0d12000000000000000000000000000000000000000000000000000000008152600160a060020a038781166004830152602482018390526000604483018190529251908616945063c92f0d1293506084808301939282900301818387803b15801561193f57600080fd5b505af1158015611953573d6000803e3d6000fd5b5050604051600160a060020a03861692507f93b68f3df34466f8031c0243f956fcca7bb41f8d8a321a85a94eadaa7962631a9150600090a25b505050565b60008054600160a060020a031663d59de86060018301546040518263ffffffff1660e060020a0281526004018082815260200191505060206040518083038186803b1580156119df57600080fd5b505afa1580156119f3573d6000803e3d6000fd5b505050506040513d6020811015611a0957600080fd5b505190506002604080517fdc50b41d0000000000000000000000000000000000000000000000000000000081523360048201529051600160a060020a0384169163dc50b41d916024808301926020929190829003018186803b158015611a6e57600080fd5b505afa158015611a82573d6000803e3d6000fd5b505050506040513d6020811015611a9857600080fd5b505114611add576040805160e560020a62461bcd0281526020600482015260196024820152600080516020612562833981519152604482015290519081900360640190fd5b6040805160e060020a63a46345170281523360048281019190915260248201529051600160a060020a0383169163a463451791604480830192600092919082900301818387803b158015611b3057600080fd5b505af1158015611b44573d6000803e3d6000fd5b50506040513392507f81e159a3d6ec45abad37cc2ff82db3a9fea6021d1413ad4fcc34ed8c247e7e209150600090a250565b60018160048110611b8357fe5b0154905081565b6000809054906101000a9004600160a060020a0316600160a060020a031663f270da7b6040518163ffffffff1660e060020a02815260040160206040518083038186803b158015611bda57600080fd5b505afa158015611bee573d6000803e3d6000fd5b505050506040513d6020811015611c0457600080fd5b5051600160a060020a03163314611c65576040805160e560020a62461bcd02815260206004820152601f60248201527f53656e64657220646966666572656e742066726f6d2044616f206f776e657200604482015290519081900360640190fd5b60008054600160a060020a031663d59de86060018301546040518263ffffffff1660e060020a0281526004018082815260200191505060206040518083038186803b158015611cb357600080fd5b505afa158015611cc7573d6000803e3d6000fd5b505050506040513d6020811015611cdd57600080fd5b50519050600181600160a060020a031663dc50b41d846040518263ffffffff1660e060020a0281526004018082600160a060020a0316600160a060020a0316815260200191505060206040518083038186803b158015611d3c57600080fd5b505afa158015611d50573d6000803e3d6000fd5b505050506040513d6020811015611d6657600080fd5b505114611dbd576040805160e560020a62461bcd02815260206004820152601960248201527f4f7267616e697a6174696f6e206e6f742070726f706f73656400000000000000604482015290519081900360640190fd5b6040805160e060020a63a4634517028152600160a060020a0384811660048301526003602483015291519183169163a46345179160448082019260009290919082900301818387803b158015611e1257600080fd5b505af1158015611e26573d6000803e3d6000fd5b5050604051600160a060020a03851692507f440cbc5e2eb708ac356a8526021b9d1e82987528caae2f1d32cf48b4c1065b519150600090a25050565b60008054600160a060020a031663d59de86060018301546040518263ffffffff1660e060020a0281526004018082815260200191505060206040518083038186803b158015611eb057600080fd5b505afa158015611ec4573d6000803e3d6000fd5b505050506040513d6020811015611eda57600080fd5b505190506002604080517fdc50b41d0000000000000000000000000000000000000000000000000000000081523360048201529051600160a060020a0384169163dc50b41d916024808301926020929190829003018186803b158015611f3f57600080fd5b505afa158015611f53573d6000803e3d6000fd5b505050506040513d6020811015611f6957600080fd5b505114611fae576040805160e560020a62461bcd0281526020600482015260196024820152600080516020612562833981519152604482015290519081900360640190fd5b604080517fecb121a60000000000000000000000000000000000000000000000000000000081523360048201529051600160a060020a0383169163ecb121a6916024808301926020929190829003018186803b15801561200d57600080fd5b505afa158015612021573d6000803e3d6000fd5b505050506040513d602081101561203757600080fd5b5051156120b4576040805160e560020a62461bcd02815260206004820152602360248201527f4f7267616e697a6174696f6e20697320756e64657220696e766573746967617460448201527f696f6e0000000000000000000000000000000000000000000000000000000000606482015290519081900360840190fd5b600081600160a060020a031663dc50b41d846040518263ffffffff1660e060020a0281526004018082600160a060020a0316600160a060020a0316815260200191505060206040518083038186803b15801561210f57600080fd5b505afa158015612123573d6000803e3d6000fd5b505050506040513d602081101561213957600080fd5b505114612190576040805160e560020a62461bcd02815260206004820152601d60248201527f4f7267616e697a6174696f6e20616c72656164792070726f706f736564000000604482015290519081900360640190fd5b604080517fd369c5af0000000000000000000000000000000000000000000000000000000081523360048201529051606091600160a060020a0384169163d369c5af91602480820192600092909190829003018186803b1580156121f357600080fd5b505afa158015612207573d6000803e3d6000fd5b505050506040513d6000823e601f3d908101601f19168201604052602081101561223057600080fd5b81019080805164010000000081111561224857600080fd5b8201602081018481111561225b57600080fd5b815164010000000081118282018710171561227557600080fd5b509094505050600160a060020a0384169150632bbaa0c090508483600260405160e060020a63ffffffff8616028152600160a060020a038416600482019081526044820183905260006064830181905260a060248401908152855160a4850152855191939091608482019160c401906020880190808383895b838110156123065781810151838201526020016122ee565b50505050905090810190601f1680156123335780820380516001836020036101000a031916815260200191505b508381038252600081526020016020019650505050505050600060405180830381600087803b15801561236557600080fd5b505af1158015612379573d6000803e3d6000fd5b50506040805160e060020a63a46345170281523360048281019190915260248201529051600160a060020a038616935063a46345179250604480830192600092919082900301818387803b1580156123d057600080fd5b505af11580156123e4573d6000803e3d6000fd5b50506040513392507f81e159a3d6ec45abad37cc2ff82db3a9fea6021d1413ad4fcc34ed8c247e7e209150600090a282600160a060020a03167f6a7a397fc0847a420c76f715a0d8aa88b0722b6a00bd76573e42b7a2eca00ec6826040518080602001828103825283818151815260200191508051906020019080838360005b8381101561247c578181015183820152602001612464565b50505050905090810190601f1680156124a95780820380516001836020036101000a031916815260200191505b509250505060405180910390a2604051600160a060020a038416907f7af1c8fdc38642d406f2261b755d979a4baffaa73fc5b2901cb0dd2b5e5c1de490600090a2505050565b600060208251108015612503575060008251115b1515612559576040805160e560020a62461bcd02815260206004820152601e60248201527f537472696e6720746f6f206c6f6e67206f72206e756c6c20737472696e670000604482015290519081900360640190fd5b50602001519056fe4f7267616e697a6174696f6e206e6f7420617070726f76656400000000000000a165627a7a7230582006675e0e1c7f25789364bc73d9d8c96a4c31ce3f0c69b989f39076966b01df790029",
  "source": "pragma solidity ^0.5.0;\r\n\r\nimport \"./utils/StringAsKey.sol\";\r\n\r\nimport \"./Registry/IWfcRegistry.sol\";\r\n\r\nimport \"./storage/IWfcHelpRequestStorage.sol\";\r\n\r\nimport \"./storage/IWfcManagmentStorage.sol\";\r\n\r\ncontract IWfcDonationsStorage {\r\n    function createFundraising(bytes32 _line, address _organization, uint256 _softcap, uint256 _hardcap, address _currency, uint256 _timeout, address _destination, string calldata _metadata) external;\r\n}\r\n\r\ncontract IWfcReserveStorage {\r\n    function() external payable {\r\n    }\r\n}\r\n\r\n\r\ncontract WfcHelpRequestOrganizationsLogical {\r\n    \r\n    using StringAsKey for string;\r\n\r\n    /**\r\n     * @dev address of the registry this contract is linked to\r\n     */\r\n    IWfcRegistry public wfcRegistry;\r\n\r\n    /**\r\n     * @dev name in bytes of storage contracts that this contract is linked through the registry\r\n     */\r\n    bytes32[4] public storageContractName;\r\n    \r\n    enum StatusRegistration {NOT_EXISTING, PROPOSED, APPROVED, REFUSED, REVOKED, BLOCKED}\r\n    \r\n    \r\n    event RegistrationRequestLog(address indexed _organizationAddress, string _dataUrl);\r\n    \r\n    event RegistrationApproved(address indexed _organizationAddress);\r\n    \r\n    event RegistrationRefused(address indexed _organizationAddress);\r\n    \r\n    event RegistrationRevoked(address indexed _organizationAddress);\r\n    \r\n    event RegitrationChanged(address indexed _previousAddress, address indexed _newAddress);\r\n    \r\n    event RegistrationBlocked(address indexed _organizationAddress);\r\n    \r\n    event RequireDaoInvestigationLog(address indexed _organizationAddress, string _investigationDataUrl);\r\n    \r\n    event InvestigationStop(address indexed _organizationAddress);\r\n    \r\n    modifier onlyOwnerDao {\r\n        require(msg.sender == wfcRegistry.getOwnerDao(), \"Sender different from Dao owner\");\r\n        _;\r\n    }\r\n\r\n    function registrationRequest(string calldata _dataUrl, address _organizationAddress) external {\r\n        IWfcHelpRequestStorage wfcHelpRequestStorage = IWfcHelpRequestStorage(wfcRegistry.storageContracts(storageContractName[0]));\r\n        require(wfcHelpRequestStorage.getOrganizationStatus(_organizationAddress) == uint256(StatusRegistration.NOT_EXISTING), \"Organization already proposed\");\r\n        wfcHelpRequestStorage.setOrganization(_organizationAddress, _dataUrl, uint256(StatusRegistration.PROPOSED), false, \"\");\r\n        emit RegistrationRequestLog(_organizationAddress, _dataUrl);\r\n    }\r\n    \r\n    function approveRequest(address _organizationAddress) external onlyOwnerDao() {\r\n        IWfcHelpRequestStorage wfcHelpRequestStorage = IWfcHelpRequestStorage(wfcRegistry.storageContracts(storageContractName[0]));\r\n        require(wfcHelpRequestStorage.getOrganizationStatus(_organizationAddress) == uint256(StatusRegistration.PROPOSED), \"Organization not proposed\");\r\n        wfcHelpRequestStorage.setOrganizationStatus(_organizationAddress, uint256(StatusRegistration.APPROVED));\r\n        emit RegistrationApproved(_organizationAddress);\r\n    }\r\n    \r\n    function refuseRequest(address _organizationAddress) external onlyOwnerDao() {\r\n        IWfcHelpRequestStorage wfcHelpRequestStorage = IWfcHelpRequestStorage(wfcRegistry.storageContracts(storageContractName[0]));\r\n        require(wfcHelpRequestStorage.getOrganizationStatus(_organizationAddress) == uint256(StatusRegistration.PROPOSED), \"Organization not proposed\");\r\n        wfcHelpRequestStorage.setOrganizationStatus(_organizationAddress, uint256(StatusRegistration.REFUSED));\r\n        emit RegistrationRefused(_organizationAddress);\r\n    }\r\n    \r\n    function revokeAddress() external {\r\n        IWfcHelpRequestStorage wfcHelpRequestStorage = IWfcHelpRequestStorage(wfcRegistry.storageContracts(storageContractName[0]));\r\n        require(wfcHelpRequestStorage.getOrganizationStatus(msg.sender) == uint256(StatusRegistration.APPROVED), \"Organization not approved\");\r\n        wfcHelpRequestStorage.setOrganizationStatus(msg.sender, uint256(StatusRegistration.REVOKED));\r\n        emit RegistrationRevoked(msg.sender);\r\n    }\r\n    \r\n    function changeAddress(address _newOrganizationAddress) external {\r\n        IWfcHelpRequestStorage wfcHelpRequestStorage = IWfcHelpRequestStorage(wfcRegistry.storageContracts(storageContractName[0]));\r\n        require(wfcHelpRequestStorage.getOrganizationStatus(msg.sender) == uint256(StatusRegistration.APPROVED), \"Organization not approved\");\r\n        require(!wfcHelpRequestStorage.getOrganizationUnderInvestigation(msg.sender), \"Organization is under investigation\");\r\n        require(wfcHelpRequestStorage.getOrganizationStatus(_newOrganizationAddress) == uint256(StatusRegistration.NOT_EXISTING), \"Organization already proposed\");\r\n        string memory dataUrlPropose = wfcHelpRequestStorage.getOrganizationUrlPropose(msg.sender);\r\n        wfcHelpRequestStorage.setOrganization(_newOrganizationAddress, dataUrlPropose, uint256(StatusRegistration.APPROVED), false, \"\");\r\n        wfcHelpRequestStorage.setOrganizationStatus(msg.sender, uint256(StatusRegistration.REVOKED));\r\n        emit RegistrationRevoked(msg.sender);\r\n        emit RegistrationRequestLog(_newOrganizationAddress, dataUrlPropose);\r\n        emit RegistrationApproved(_newOrganizationAddress);\r\n    }\r\n    \r\n    function requireDaoInvestigation(string calldata _investigationDataUrl, address _organizationAddress) external payable {\r\n        IWfcHelpRequestStorage wfcHelpRequestStorage = IWfcHelpRequestStorage(wfcRegistry.storageContracts(storageContractName[0]));\r\n        IWfcManagmentStorage wfcManagment = IWfcManagmentStorage(wfcRegistry.storageContracts(storageContractName[3]));\r\n        string memory setting = \"InvestigationCost\";\r\n        bytes32 settingData = setting.convert();\r\n        require(msg.value > wfcManagment.getSettings(settingData), \"Not enough eth for investigation\");\r\n        require(wfcHelpRequestStorage.getOrganizationStatus(_organizationAddress) == uint256(StatusRegistration.APPROVED), \"Organization not approved\");\r\n        require(!wfcHelpRequestStorage.getOrganizationUnderInvestigation(_organizationAddress), \"Organization already under investigation\");\r\n        wfcHelpRequestStorage.setOrganizationUnderInvestigation(_organizationAddress, true);\r\n        wfcHelpRequestStorage.setOrganizationUrlInvestigation(_organizationAddress, _investigationDataUrl);\r\n        IWfcReserveStorage wfcReserveStorage = IWfcReserveStorage(wfcRegistry.storageContracts(storageContractName[2]));\r\n        address(wfcReserveStorage).transfer(msg.value);\r\n        emit RequireDaoInvestigationLog(_organizationAddress, _investigationDataUrl);\r\n    }\r\n    \r\n    function voteDaoInvestigation(address _organizationAddress, bool _isBlocked) external onlyOwnerDao() {\r\n        IWfcHelpRequestStorage wfcHelpRequestStorage = IWfcHelpRequestStorage(wfcRegistry.storageContracts(storageContractName[0]));\r\n        require(wfcHelpRequestStorage.getOrganizationStatus(_organizationAddress) == uint256(StatusRegistration.APPROVED), \"Organization not approved\");\r\n        require(wfcHelpRequestStorage.getOrganizationUnderInvestigation(_organizationAddress), \"Organization is not under investigation\");\r\n        if (_isBlocked) {\r\n            wfcHelpRequestStorage.setOrganizationStatus(_organizationAddress, uint256(StatusRegistration.BLOCKED));\r\n            emit RegistrationBlocked(_organizationAddress);\r\n        } else {\r\n            wfcHelpRequestStorage.setOrganizationUnderInvestigation(_organizationAddress, false);\r\n            wfcHelpRequestStorage.setOrganizationUrlInvestigation(_organizationAddress, \"\");\r\n            emit InvestigationStop(_organizationAddress);\r\n        }\r\n    }\r\n    \r\n    function blockHackedAddress(address _newOrganizationAddress) external {\r\n        IWfcHelpRequestStorage wfcHelpRequestStorage = IWfcHelpRequestStorage(wfcRegistry.storageContracts(storageContractName[0]));\r\n        require(wfcHelpRequestStorage.getOrganizationStatus(msg.sender) == uint256(StatusRegistration.REVOKED), \"Organization sender not revoked\");\r\n        require(wfcHelpRequestStorage.getOrganizationStatus(_newOrganizationAddress) == uint256(StatusRegistration.APPROVED), \"Hacker organization not approved\");\r\n        require(keccak256(abi.encodePacked(wfcHelpRequestStorage.getOrganizationUrlPropose(msg.sender))) == keccak256(abi.encodePacked(wfcHelpRequestStorage.getOrganizationUrlPropose(_newOrganizationAddress))), \"Different identities\");\r\n        wfcHelpRequestStorage.setOrganizationStatus(_newOrganizationAddress, uint256(StatusRegistration.BLOCKED));\r\n        emit RegistrationBlocked(msg.sender);\r\n    }\r\n    \r\n}\r\n\r\n\r\ncontract WfcHelpRequestLogical is WfcHelpRequestOrganizationsLogical {\r\n    \r\n    enum StatusProposal {PROPOSED, REVOKED, REFUSED, APPROVED}\r\n    \r\n    event FundraisingSubmittedLog(uint256 indexed _fundraisingId, string indexed _line, address indexed _organization, uint256 _softcap, uint256 _hardcap, address _currency, uint256 _timeout, address _destination, string _metadata);\r\n    \r\n    event FundraisingRevokedLog(uint256 indexed _fundraisingId);\r\n    \r\n    event FundraisingRefusedLog(uint256 indexed _fundraisingId);\r\n    \r\n    event FundraisingApprovedLog(uint256 indexed _fundraisingId);\r\n    \r\n    event FundraisingCreatedLog(uint256 indexed _line, uint256 indexed _fundraisingId, address indexed _organization, uint256 _softcap, uint256 _hardcap, uint256 _reserveSplit, uint256 _serviceLineSplit, uint256 _allLinesSplit, uint256 _teamSplit, address _currency, uint256 _timeout, address _destination, string _metadata);\r\n    \r\n\r\n    constructor(IWfcRegistry _wfcRegistry, string memory _helpRequestContractName, string memory _donationContractName, string memory _managmentContractName, string memory _reserveContractName) public {\r\n        require(address(_wfcRegistry) != address(0), \"Registry address is null\");\r\n        wfcRegistry = _wfcRegistry;\r\n        storageContractName[0] = _helpRequestContractName.convert();\r\n        storageContractName[1] = _donationContractName.convert();\r\n        storageContractName[2] = _managmentContractName.convert();\r\n        storageContractName[3] = _reserveContractName.convert();\r\n    }\r\n    \r\n    function submitFundraising(string calldata _line, uint256 _softcap, uint256 _hardcap, address _tokenAddress, uint256 _timeout, address _destination, string calldata _dataUrl) external {\r\n        IWfcHelpRequestStorage wfcHelpRequestStorage = IWfcHelpRequestStorage(wfcRegistry.storageContracts(storageContractName[0]));\r\n        IWfcManagmentStorage wfcManagment = IWfcManagmentStorage(wfcRegistry.storageContracts(storageContractName[3]));\r\n        require(wfcHelpRequestStorage.getOrganizationStatus(msg.sender) == uint256(StatusRegistration.APPROVED), \"Organization not registred\");\r\n        bytes32 line = _line.convert();\r\n        require(wfcManagment.getServiceLine(line) == true, \"Wrong service Line\");\r\n        require(wfcManagment.getTokenAddress(_tokenAddress) == true, \"Wrong token\");\r\n        require(_destination != address(0), \"Destination address must be different from zero address\");\r\n        uint256 propNumber = wfcHelpRequestStorage.addFundraisingProposal(line, msg.sender, _softcap, _hardcap, _tokenAddress, _timeout, _destination, uint256(StatusProposal.PROPOSED), _dataUrl);\r\n        emit FundraisingSubmittedLog(propNumber - 1, _line, msg.sender, _softcap, _hardcap, _tokenAddress, _timeout, _destination, _dataUrl);\r\n    }\r\n    \r\n    function revokeFundraising(uint256 _fundraisingId) external {\r\n        IWfcHelpRequestStorage wfcHelpRequestStorage = IWfcHelpRequestStorage(wfcRegistry.storageContracts(storageContractName[0]));\r\n        require(msg.sender == wfcHelpRequestStorage.getFundraisingOrganization(_fundraisingId), \"Wrong organization\");\r\n        require(wfcHelpRequestStorage.getFundraisingStatus(_fundraisingId) == uint256(StatusProposal.PROPOSED), \"Wrong status of proposal\");\r\n        wfcHelpRequestStorage.setFundraisingStatus(_fundraisingId, uint256(StatusProposal.REVOKED));\r\n        emit FundraisingRevokedLog(_fundraisingId);\r\n    }\r\n    \r\n    function refuseFundraising(uint256 _fundraisingId) external onlyOwnerDao() {\r\n        IWfcHelpRequestStorage wfcHelpRequestStorage = IWfcHelpRequestStorage(wfcRegistry.storageContracts(storageContractName[0]));\r\n        require(wfcHelpRequestStorage.getFundraisingStatus(_fundraisingId) == uint256(StatusProposal.PROPOSED), \"Wrong status of proposal\");\r\n        wfcHelpRequestStorage.setFundraisingStatus(_fundraisingId, uint256(StatusProposal.REFUSED));\r\n        emit FundraisingRefusedLog(_fundraisingId);\r\n    }\r\n    \r\n    function approveFundraising(uint256 _fundraisingId) external onlyOwnerDao() {\r\n        IWfcHelpRequestStorage wfcHelpRequestStorage = IWfcHelpRequestStorage(wfcRegistry.storageContracts(storageContractName[0]));\r\n        IWfcDonationsStorage wfcDonationsStorage = IWfcDonationsStorage(wfcRegistry.storageContracts(storageContractName[1]));\r\n        require(wfcHelpRequestStorage.getFundraisingStatus(_fundraisingId) == uint256(StatusProposal.PROPOSED), \"Wrong status of proposal\");\r\n        wfcHelpRequestStorage.setFundraisingStatus(_fundraisingId, uint256(StatusProposal.APPROVED));\r\n        emit FundraisingApprovedLog(_fundraisingId);\r\n        wfcDonationsStorage.createFundraising(wfcHelpRequestStorage.getFundraisingLine(_fundraisingId), wfcHelpRequestStorage.getFundraisingOrganization(_fundraisingId), wfcHelpRequestStorage.getFundraisingSoftcap(_fundraisingId), wfcHelpRequestStorage.getFundraisingHardcap(_fundraisingId), wfcHelpRequestStorage.getFundraisingToken(_fundraisingId), wfcHelpRequestStorage.getFundraisingTimeout(_fundraisingId), wfcHelpRequestStorage.getFundraisingDestination(_fundraisingId), wfcHelpRequestStorage.getFundraisingDataUrl(_fundraisingId));\r\n    }\r\n}",
  "sourcePath": "C:/Users/Alessandro/solidity_work/WfcPlatform/contracts/WfcHelpRequestLogical.sol",
  "compiler": {
    "name": "solc",
    "version": "0.5.0+commit.1d4f565a.Emscripten.clang"
  },
  "schemaVersion": "3.0.0",
  "updatedAt": "2019-12-13T00:42:12.440Z",
  "devdoc": {
    "methods": {}
  },
  "userdoc": {
    "methods": {}
  }
}