{
  "contractName": "WfcManagmentStorage",
  "abi": [
    {
      "constant": true,
      "inputs": [],
      "name": "wfcRegistry",
      "outputs": [
        {
          "name": "",
          "type": "address"
        }
      ],
      "payable": false,
      "stateMutability": "view",
      "type": "function",
      "signature": "0x254f6118"
    },
    {
      "inputs": [
        {
          "name": "_wfcRegistry",
          "type": "address"
        }
      ],
      "payable": false,
      "stateMutability": "nonpayable",
      "type": "constructor",
      "signature": "constructor"
    },
    {
      "constant": false,
      "inputs": [
        {
          "name": "_tokenAddress",
          "type": "address"
        },
        {
          "name": "_isActivated",
          "type": "bool"
        }
      ],
      "name": "setTokenAddress",
      "outputs": [],
      "payable": false,
      "stateMutability": "nonpayable",
      "type": "function",
      "signature": "0x2a0b5e9e"
    },
    {
      "constant": true,
      "inputs": [
        {
          "name": "_tokenAddress",
          "type": "address"
        }
      ],
      "name": "getTokenAddress",
      "outputs": [
        {
          "name": "",
          "type": "bool"
        }
      ],
      "payable": false,
      "stateMutability": "view",
      "type": "function",
      "signature": "0xb8d7b669"
    },
    {
      "constant": false,
      "inputs": [
        {
          "name": "_ServiceLineName",
          "type": "bytes32"
        },
        {
          "name": "_isActivated",
          "type": "bool"
        }
      ],
      "name": "setServiceLine",
      "outputs": [],
      "payable": false,
      "stateMutability": "nonpayable",
      "type": "function",
      "signature": "0xc95fc12c"
    },
    {
      "constant": true,
      "inputs": [
        {
          "name": "_ServiceLineName",
          "type": "bytes32"
        }
      ],
      "name": "getServiceLine",
      "outputs": [
        {
          "name": "",
          "type": "bool"
        }
      ],
      "payable": false,
      "stateMutability": "view",
      "type": "function",
      "signature": "0xacae1799"
    },
    {
      "constant": false,
      "inputs": [
        {
          "name": "_donationSplitName",
          "type": "bytes32"
        },
        {
          "name": "_percentage",
          "type": "uint256"
        }
      ],
      "name": "setDonationSplit",
      "outputs": [],
      "payable": false,
      "stateMutability": "nonpayable",
      "type": "function",
      "signature": "0xe0661599"
    },
    {
      "constant": true,
      "inputs": [
        {
          "name": "_donationSplitName",
          "type": "bytes32"
        }
      ],
      "name": "getDonationSplit",
      "outputs": [
        {
          "name": "",
          "type": "uint256"
        }
      ],
      "payable": false,
      "stateMutability": "view",
      "type": "function",
      "signature": "0xc51d31f0"
    },
    {
      "constant": false,
      "inputs": [
        {
          "name": "_settingName",
          "type": "bytes32"
        },
        {
          "name": "_value",
          "type": "uint256"
        }
      ],
      "name": "setSettings",
      "outputs": [],
      "payable": false,
      "stateMutability": "nonpayable",
      "type": "function",
      "signature": "0x5bce6167"
    },
    {
      "constant": true,
      "inputs": [
        {
          "name": "_settingName",
          "type": "bytes32"
        }
      ],
      "name": "getSettings",
      "outputs": [
        {
          "name": "",
          "type": "uint256"
        }
      ],
      "payable": false,
      "stateMutability": "view",
      "type": "function",
      "signature": "0xdce2dd17"
    }
  ],
  "bytecode": "0x608060405234801561001057600080fd5b5060405160208061077e8339810180604052602081101561003057600080fd5b5051600160a060020a03811615156100a957604080517f08c379a000000000000000000000000000000000000000000000000000000000815260206004820152601860248201527f52656769737472792061646472657373206973206e756c6c0000000000000000604482015290519081900360640190fd5b60008054600160a060020a03909216600160a060020a03199092169190911790556106a5806100d96000396000f3fe6080604052600436106100985763ffffffff7c0100000000000000000000000000000000000000000000000000000000600035041663254f6118811461009d5780632a0b5e9e146100ce5780635bce61671461010b578063acae17991461013b578063b8d7b66914610179578063c51d31f0146101ac578063c95fc12c146101e8578063dce2dd171461021a578063e066159914610244575b600080fd5b3480156100a957600080fd5b506100b2610274565b60408051600160a060020a039092168252519081900360200190f35b3480156100da57600080fd5b50610109600480360360408110156100f157600080fd5b50600160a060020a0381351690602001351515610283565b005b34801561011757600080fd5b506101096004803603604081101561012e57600080fd5b5080359060200135610372565b34801561014757600080fd5b506101656004803603602081101561015e57600080fd5b5035610448565b604080519115158252519081900360200190f35b34801561018557600080fd5b506101656004803603602081101561019c57600080fd5b5035600160a060020a031661045d565b3480156101b857600080fd5b506101d6600480360360208110156101cf57600080fd5b503561047b565b60408051918252519081900360200190f35b3480156101f457600080fd5b506101096004803603604081101561020b57600080fd5b5080359060200135151561048d565b34801561022657600080fd5b506101d66004803603602081101561023d57600080fd5b5035610571565b34801561025057600080fd5b506101096004803603604081101561026757600080fd5b5080359060200135610583565b600054600160a060020a031681565b6000546040805160e060020a63a16543790281523060048201523360248201529051600160a060020a039092169163a165437991604480820192602092909190829003018186803b1580156102d757600080fd5b505afa1580156102eb573d6000803e3d6000fd5b505050506040513d602081101561030157600080fd5b50511515610347576040805160e560020a62461bcd028152602060048201526015602482015260008051602061065a833981519152604482015290519081900360640190fd5b600160a060020a03919091166000908152600160205260409020805460ff1916911515919091179055565b6000546040805160e060020a63a16543790281523060048201523360248201529051600160a060020a039092169163a165437991604480820192602092909190829003018186803b1580156103c657600080fd5b505afa1580156103da573d6000803e3d6000fd5b505050506040513d60208110156103f057600080fd5b50511515610436576040805160e560020a62461bcd028152602060048201526015602482015260008051602061065a833981519152604482015290519081900360640190fd5b60009182526004602052604090912055565b60009081526002602052604090205460ff1690565b600160a060020a031660009081526001602052604090205460ff1690565b60009081526003602052604090205490565b6000546040805160e060020a63a16543790281523060048201523360248201529051600160a060020a039092169163a165437991604480820192602092909190829003018186803b1580156104e157600080fd5b505afa1580156104f5573d6000803e3d6000fd5b505050506040513d602081101561050b57600080fd5b50511515610551576040805160e560020a62461bcd028152602060048201526015602482015260008051602061065a833981519152604482015290519081900360640190fd5b600091825260026020526040909120805460ff1916911515919091179055565b60009081526004602052604090205490565b6000546040805160e060020a63a16543790281523060048201523360248201529051600160a060020a039092169163a165437991604480820192602092909190829003018186803b1580156105d757600080fd5b505afa1580156105eb573d6000803e3d6000fd5b505050506040513d602081101561060157600080fd5b50511515610647576040805160e560020a62461bcd028152602060048201526015602482015260008051602061065a833981519152604482015290519081900360640190fd5b6000918252600360205260409091205556fe53656e646572206973206e6f7420616c6c6f7765640000000000000000000000a165627a7a72305820b142908b1ec2f6518224c21f4fa7b44029e2244633849706691a951e41d00fc20029",
  "source": "pragma solidity ^0.5.0;\r\n\r\nimport \"../Registry/IWfcRegistry.sol\";\r\n\r\nimport \"./IWfcManagmentStorage.sol\";\r\n\r\n/**\r\n * @dev Storage contract implementing all getter and setter of the variables \r\n * that allow correct working of Wfc platform managed by the Dao\r\n */\r\ncontract WfcManagmentStorage is IWfcManagmentStorage {\r\n    \r\n    /**\r\n     * @dev address of the registry this contract is linked to\r\n     */\r\n    IWfcRegistry public wfcRegistry;\r\n\r\n    /**\r\n     * @dev mapping that contain address of the allowed token used for donations\r\n     */\r\n    mapping(address => bool) private tokenAddress;\r\n\r\n    /**\r\n     * @dev mapping that contain allowed service lines\r\n     */\r\n    mapping(bytes32 => bool) private serviceLines;\r\n\r\n    /**\r\n     * @dev mapping that contain splitting percentages of the donations\r\n     */\r\n    mapping(bytes32 => uint256) private donationSplit;\r\n\r\n    /**\r\n     * @dev mapping that contain settings for the correct work of the platform\r\n     */\r\n    mapping(bytes32 => uint256) private settings;\r\n\r\n    modifier onlyAllowedLogicalContract {\r\n        require(wfcRegistry.isAllowed(address(this), msg.sender), \"Sender is not allowed\");\r\n        _;\r\n    }\r\n\r\n    /**\r\n     * @dev constructor that sets the address of the registry\r\n     */\r\n    constructor(IWfcRegistry _wfcRegistry) public {\r\n        require(address(_wfcRegistry) != address(0), \"Registry address is null\");\r\n        wfcRegistry = _wfcRegistry;\r\n    }\r\n\r\n    /**\r\n     * @dev See {IWfcManagmentStorage-setTokenAddress}\r\n     */\r\n    function setTokenAddress(address _tokenAddress, bool _isActivated) external onlyAllowedLogicalContract {\r\n        tokenAddress[_tokenAddress] = _isActivated;\r\n    }\r\n\r\n    /**\r\n     * @dev See {IWfcManagmentStorage-getTokenAddress}\r\n     */\r\n    function getTokenAddress(address _tokenAddress) public view returns(bool) {\r\n        return tokenAddress[_tokenAddress];\r\n    }\r\n\r\n    /**\r\n     * @dev See {IWfcManagmentStorage-setServiceLine}\r\n     */\r\n    function setServiceLine(bytes32 _ServiceLineName, bool _isActivated) external onlyAllowedLogicalContract {\r\n        serviceLines[_ServiceLineName] = _isActivated;\r\n    }\r\n\r\n    /**\r\n     * @dev See {IWfcManagmentStorage-getServiceLine}\r\n     */\r\n    function getServiceLine(bytes32 _ServiceLineName) public view  returns(bool) {\r\n        return serviceLines[_ServiceLineName];\r\n    }\r\n\r\n    /**\r\n     * @dev See {IWfcManagmentStorage-setDonationSplit}\r\n     */\r\n    function setDonationSplit(bytes32 _donationSplitName, uint256 _percentage) external onlyAllowedLogicalContract {\r\n        donationSplit[_donationSplitName] = _percentage;\r\n    }\r\n\r\n    /**\r\n     * @dev See {IWfcManagmentStorage-getDonationSplit}\r\n     */\r\n    function getDonationSplit(bytes32 _donationSplitName) public view returns(uint256) {\r\n        return donationSplit[_donationSplitName];\r\n    }\r\n\r\n    /**\r\n     * @dev See {IWfcManagmentStorage-setSettings}\r\n     */\r\n    function setSettings(bytes32 _settingName, uint256 _value) external onlyAllowedLogicalContract {\r\n        settings[_settingName] = _value;\r\n    }\r\n\r\n    /**\r\n     * @dev See {IWfcManagmentStorage-getSettings}\r\n     */\r\n    function getSettings(bytes32 _settingName) public view returns(uint256) {\r\n        return settings[_settingName];\r\n    }\r\n}\r\n",
  "sourcePath": "C:/Users/Alessandro/solidity_work/WfcPlatform/contracts/Storage/WfcManagmentStorage.sol",
  "compiler": {
    "name": "solc",
    "version": "0.5.0+commit.1d4f565a.Emscripten.clang"
  },
  "schemaVersion": "3.0.0",
  "updatedAt": "2019-12-13T00:47:35.574Z",
  "devdoc": {
    "details": "Storage contract implementing all getter and setter of the variables \r that allow correct working of Wfc platform managed by the Dao\r",
    "methods": {
      "constructor": {
        "details": "constructor that sets the address of the registry\r"
      },
      "getDonationSplit(bytes32)": {
        "details": "See {IWfcManagmentStorage-getDonationSplit}\r"
      },
      "getServiceLine(bytes32)": {
        "details": "See {IWfcManagmentStorage-getServiceLine}\r"
      },
      "getSettings(bytes32)": {
        "details": "See {IWfcManagmentStorage-getSettings}\r"
      },
      "getTokenAddress(address)": {
        "details": "See {IWfcManagmentStorage-getTokenAddress}\r"
      },
      "setDonationSplit(bytes32,uint256)": {
        "details": "See {IWfcManagmentStorage-setDonationSplit}\r"
      },
      "setServiceLine(bytes32,bool)": {
        "details": "See {IWfcManagmentStorage-setServiceLine}\r"
      },
      "setSettings(bytes32,uint256)": {
        "details": "See {IWfcManagmentStorage-setSettings}\r"
      },
      "setTokenAddress(address,bool)": {
        "details": "See {IWfcManagmentStorage-setTokenAddress}\r"
      }
    }
  },
  "userdoc": {
    "methods": {}
  }
}