{
  "contractName": "WfcHelpRequestStorage",
  "abi": [
    {
      "constant": true,
      "inputs": [
        {
          "name": "",
          "type": "uint256"
        }
      ],
      "name": "proposals",
      "outputs": [
        {
          "name": "line",
          "type": "bytes32"
        },
        {
          "name": "organization",
          "type": "address"
        },
        {
          "name": "softcap",
          "type": "uint256"
        },
        {
          "name": "hardcap",
          "type": "uint256"
        },
        {
          "name": "currency",
          "type": "address"
        },
        {
          "name": "timeout",
          "type": "uint256"
        },
        {
          "name": "destination",
          "type": "address"
        },
        {
          "name": "proposalStatus",
          "type": "uint8"
        },
        {
          "name": "fundraisingDataUrl",
          "type": "string"
        }
      ],
      "payable": false,
      "stateMutability": "view",
      "type": "function"
    },
    {
      "constant": true,
      "inputs": [],
      "name": "wfcRegistry",
      "outputs": [
        {
          "name": "",
          "type": "address"
        }
      ],
      "payable": false,
      "stateMutability": "view",
      "type": "function"
    },
    {
      "constant": true,
      "inputs": [
        {
          "name": "",
          "type": "address"
        }
      ],
      "name": "organizations",
      "outputs": [
        {
          "name": "dataUrlPropose",
          "type": "string"
        },
        {
          "name": "status",
          "type": "uint8"
        },
        {
          "name": "isUnderInvestigation",
          "type": "bool"
        },
        {
          "name": "dataUrlInvestigationRequest",
          "type": "string"
        }
      ],
      "payable": false,
      "stateMutability": "view",
      "type": "function"
    },
    {
      "inputs": [
        {
          "name": "_wfcRegistry",
          "type": "address"
        }
      ],
      "payable": false,
      "stateMutability": "nonpayable",
      "type": "constructor"
    },
    {
      "constant": false,
      "inputs": [
        {
          "name": "_organizationAddress",
          "type": "address"
        },
        {
          "name": "_dataUrlPropose",
          "type": "string"
        },
        {
          "name": "_status",
          "type": "uint256"
        },
        {
          "name": "_isUnderInvestigation",
          "type": "bool"
        },
        {
          "name": "_dataUrlInvestigationRequest",
          "type": "string"
        }
      ],
      "name": "setOrganization",
      "outputs": [],
      "payable": false,
      "stateMutability": "nonpayable",
      "type": "function"
    },
    {
      "constant": false,
      "inputs": [
        {
          "name": "_organizationAddress",
          "type": "address"
        },
        {
          "name": "_dataUrlPropose",
          "type": "string"
        }
      ],
      "name": "setOrganizationUrlPropose",
      "outputs": [],
      "payable": false,
      "stateMutability": "nonpayable",
      "type": "function"
    },
    {
      "constant": true,
      "inputs": [
        {
          "name": "_organizationAddress",
          "type": "address"
        }
      ],
      "name": "getOrganizationUrlPropose",
      "outputs": [
        {
          "name": "",
          "type": "string"
        }
      ],
      "payable": false,
      "stateMutability": "view",
      "type": "function"
    },
    {
      "constant": false,
      "inputs": [
        {
          "name": "_organizationAddress",
          "type": "address"
        },
        {
          "name": "_status",
          "type": "uint256"
        }
      ],
      "name": "setOrganizationStatus",
      "outputs": [],
      "payable": false,
      "stateMutability": "nonpayable",
      "type": "function"
    },
    {
      "constant": true,
      "inputs": [
        {
          "name": "_organizationAddress",
          "type": "address"
        }
      ],
      "name": "getOrganizationStatus",
      "outputs": [
        {
          "name": "",
          "type": "uint256"
        }
      ],
      "payable": false,
      "stateMutability": "view",
      "type": "function"
    },
    {
      "constant": false,
      "inputs": [
        {
          "name": "_organizationAddress",
          "type": "address"
        },
        {
          "name": "_isUnderInvestigation",
          "type": "bool"
        }
      ],
      "name": "setOrganizationUnderInvestigation",
      "outputs": [],
      "payable": false,
      "stateMutability": "nonpayable",
      "type": "function"
    },
    {
      "constant": true,
      "inputs": [
        {
          "name": "_organizationAddress",
          "type": "address"
        }
      ],
      "name": "getOrganizationUnderInvestigation",
      "outputs": [
        {
          "name": "",
          "type": "bool"
        }
      ],
      "payable": false,
      "stateMutability": "view",
      "type": "function"
    },
    {
      "constant": false,
      "inputs": [
        {
          "name": "_organizationAddress",
          "type": "address"
        },
        {
          "name": "_dataUrlInvestigationRequest",
          "type": "string"
        }
      ],
      "name": "setOrganizationUrlInvestigation",
      "outputs": [],
      "payable": false,
      "stateMutability": "nonpayable",
      "type": "function"
    },
    {
      "constant": true,
      "inputs": [
        {
          "name": "_organizationAddress",
          "type": "address"
        }
      ],
      "name": "getOrganizationUrlInvestigation",
      "outputs": [
        {
          "name": "",
          "type": "string"
        }
      ],
      "payable": false,
      "stateMutability": "view",
      "type": "function"
    },
    {
      "constant": false,
      "inputs": [
        {
          "name": "_line",
          "type": "bytes32"
        },
        {
          "name": "_organization",
          "type": "address"
        },
        {
          "name": "_softcap",
          "type": "uint256"
        },
        {
          "name": "_hardcap",
          "type": "uint256"
        },
        {
          "name": "_currency",
          "type": "address"
        },
        {
          "name": "_timeout",
          "type": "uint256"
        },
        {
          "name": "_destination",
          "type": "address"
        },
        {
          "name": "_proposalStatus",
          "type": "uint256"
        },
        {
          "name": "_fundraisingDataUrl",
          "type": "string"
        }
      ],
      "name": "addFundraisingProposal",
      "outputs": [
        {
          "name": "",
          "type": "uint256"
        }
      ],
      "payable": false,
      "stateMutability": "nonpayable",
      "type": "function"
    },
    {
      "constant": false,
      "inputs": [
        {
          "name": "_index",
          "type": "uint256"
        },
        {
          "name": "_line",
          "type": "bytes32"
        }
      ],
      "name": "setFundraisingLine",
      "outputs": [],
      "payable": false,
      "stateMutability": "nonpayable",
      "type": "function"
    },
    {
      "constant": true,
      "inputs": [
        {
          "name": "_index",
          "type": "uint256"
        }
      ],
      "name": "getFundraisingLine",
      "outputs": [
        {
          "name": "",
          "type": "bytes32"
        }
      ],
      "payable": false,
      "stateMutability": "view",
      "type": "function"
    },
    {
      "constant": false,
      "inputs": [
        {
          "name": "_index",
          "type": "uint256"
        },
        {
          "name": "_organization",
          "type": "address"
        }
      ],
      "name": "setFundraisingOrganization",
      "outputs": [],
      "payable": false,
      "stateMutability": "nonpayable",
      "type": "function"
    },
    {
      "constant": true,
      "inputs": [
        {
          "name": "_index",
          "type": "uint256"
        }
      ],
      "name": "getFundraisingOrganization",
      "outputs": [
        {
          "name": "",
          "type": "address"
        }
      ],
      "payable": false,
      "stateMutability": "view",
      "type": "function"
    },
    {
      "constant": false,
      "inputs": [
        {
          "name": "_index",
          "type": "uint256"
        },
        {
          "name": "_softcap",
          "type": "uint256"
        }
      ],
      "name": "setFundraisingSoftcap",
      "outputs": [],
      "payable": false,
      "stateMutability": "nonpayable",
      "type": "function"
    },
    {
      "constant": true,
      "inputs": [
        {
          "name": "_index",
          "type": "uint256"
        }
      ],
      "name": "getFundraisingSoftcap",
      "outputs": [
        {
          "name": "",
          "type": "uint256"
        }
      ],
      "payable": false,
      "stateMutability": "view",
      "type": "function"
    },
    {
      "constant": false,
      "inputs": [
        {
          "name": "_index",
          "type": "uint256"
        },
        {
          "name": "_hardcap",
          "type": "uint256"
        }
      ],
      "name": "setFundraisingHardcap",
      "outputs": [],
      "payable": false,
      "stateMutability": "nonpayable",
      "type": "function"
    },
    {
      "constant": true,
      "inputs": [
        {
          "name": "_index",
          "type": "uint256"
        }
      ],
      "name": "getFundraisingHardcap",
      "outputs": [
        {
          "name": "",
          "type": "uint256"
        }
      ],
      "payable": false,
      "stateMutability": "view",
      "type": "function"
    },
    {
      "constant": false,
      "inputs": [
        {
          "name": "_index",
          "type": "uint256"
        },
        {
          "name": "_token",
          "type": "address"
        }
      ],
      "name": "setFundraisingToken",
      "outputs": [],
      "payable": false,
      "stateMutability": "nonpayable",
      "type": "function"
    },
    {
      "constant": true,
      "inputs": [
        {
          "name": "_index",
          "type": "uint256"
        }
      ],
      "name": "getFundraisingToken",
      "outputs": [
        {
          "name": "",
          "type": "address"
        }
      ],
      "payable": false,
      "stateMutability": "view",
      "type": "function"
    },
    {
      "constant": false,
      "inputs": [
        {
          "name": "_index",
          "type": "uint256"
        },
        {
          "name": "_timeout",
          "type": "uint256"
        }
      ],
      "name": "setFundraisingTimeout",
      "outputs": [],
      "payable": false,
      "stateMutability": "nonpayable",
      "type": "function"
    },
    {
      "constant": true,
      "inputs": [
        {
          "name": "_index",
          "type": "uint256"
        }
      ],
      "name": "getFundraisingTimeout",
      "outputs": [
        {
          "name": "",
          "type": "uint256"
        }
      ],
      "payable": false,
      "stateMutability": "view",
      "type": "function"
    },
    {
      "constant": false,
      "inputs": [
        {
          "name": "_index",
          "type": "uint256"
        },
        {
          "name": "_destination",
          "type": "address"
        }
      ],
      "name": "setFundraisingDestination",
      "outputs": [],
      "payable": false,
      "stateMutability": "nonpayable",
      "type": "function"
    },
    {
      "constant": true,
      "inputs": [
        {
          "name": "_index",
          "type": "uint256"
        }
      ],
      "name": "getFundraisingDestination",
      "outputs": [
        {
          "name": "",
          "type": "address"
        }
      ],
      "payable": false,
      "stateMutability": "view",
      "type": "function"
    },
    {
      "constant": false,
      "inputs": [
        {
          "name": "_index",
          "type": "uint256"
        },
        {
          "name": "_status",
          "type": "uint256"
        }
      ],
      "name": "setFundraisingStatus",
      "outputs": [],
      "payable": false,
      "stateMutability": "nonpayable",
      "type": "function"
    },
    {
      "constant": true,
      "inputs": [
        {
          "name": "_index",
          "type": "uint256"
        }
      ],
      "name": "getFundraisingStatus",
      "outputs": [
        {
          "name": "",
          "type": "uint256"
        }
      ],
      "payable": false,
      "stateMutability": "view",
      "type": "function"
    },
    {
      "constant": false,
      "inputs": [
        {
          "name": "_index",
          "type": "uint256"
        },
        {
          "name": "_fundraisingDataUrl",
          "type": "string"
        }
      ],
      "name": "setFundraisingDataUrl",
      "outputs": [],
      "payable": false,
      "stateMutability": "nonpayable",
      "type": "function"
    },
    {
      "constant": true,
      "inputs": [
        {
          "name": "_index",
          "type": "uint256"
        }
      ],
      "name": "getFundraisingDataUrl",
      "outputs": [
        {
          "name": "",
          "type": "string"
        }
      ],
      "payable": false,
      "stateMutability": "view",
      "type": "function"
    }
  ],
  "bytecode": "0x608060405234801561001057600080fd5b5060405160208061257c8339810180604052602081101561003057600080fd5b5051600160a060020a03811615156100a957604080517f08c379a000000000000000000000000000000000000000000000000000000000815260206004820152601860248201527f52656769737472792061646472657373206973206e756c6c0000000000000000604482015290519081900360640190fd5b60008054600160a060020a03909216600160a060020a03199092169190911790556124a3806100d96000396000f3fe60806040526004361061018a5763ffffffff7c0100000000000000000000000000000000000000000000000000000000600035041663013cf08b811461018f57806306b07688146102885780631d67dbdf146102ba578063254f6118146102f35780632bbaa0c01461032457806334435656146104115780633697c8d11461044d57806348207f33146104775780634b2bec4c146104a157806354bfdd4d146104d15780635a1f74061461055e5780635aa0220e1461068f5780635c8a63991461074e57806365a27a60146107875780636948e038146107c25780637f50ea2a146107ec57806386311d2b146108165780638d73ea93146108be578063929aed90146108e8578063a39f57bf14610918578063a463451714610942578063ab2b6bab1461097b578063c92f0d12146109a5578063cf4719ab14610a32578063d369c5af14610a5c578063d518ccc614610a8f578063da8bbfbc14610abf578063dc50b41d14610aef578063e7d2465914610b22578063ecb121a614610b5b578063f1b4250c14610ba2575b600080fd5b34801561019b57600080fd5b506101b9600480360360208110156101b257600080fd5b5035610c26565b604080518a8152600160a060020a03808b16602083015291810189905260608101889052868216608082015260a0810186905290841660c082015260e0810183600381111561020457fe5b60ff16815260200180602001828103825283818151815260200191508051906020019080838360005b8381101561024557818101518382015260200161022d565b50505050905090810190601f1680156102725780820380516001836020036101000a031916815260200191505b509a505050505050505050505060405180910390f35b34801561029457600080fd5b506102b8600480360360408110156102ab57600080fd5b5080359060200135610d32565b005b3480156102c657600080fd5b506102b8600480360360408110156102dd57600080fd5b5080359060200135600160a060020a0316610e1f565b3480156102ff57600080fd5b50610308610f2c565b60408051600160a060020a039092168252519081900360200190f35b34801561033057600080fd5b506102b8600480360360a081101561034757600080fd5b600160a060020a03823516919081019060408101602082013564010000000081111561037257600080fd5b82018360208201111561038457600080fd5b803590602001918460018302840111640100000000831117156103a657600080fd5b91939092823592602081013515159291906060810190604001356401000000008111156103d257600080fd5b8201836020820111156103e457600080fd5b8035906020019184600183028401116401000000008311171561040657600080fd5b509092509050610f3b565b34801561041d57600080fd5b5061043b6004803603602081101561043457600080fd5b5035611138565b60408051918252519081900360200190f35b34801561045957600080fd5b506103086004803603602081101561047057600080fd5b5035611162565b34801561048357600080fd5b506103086004803603602081101561049a57600080fd5b5035611196565b3480156104ad57600080fd5b506102b8600480360360408110156104c457600080fd5b50803590602001356111ca565b3480156104dd57600080fd5b506102b8600480360360408110156104f457600080fd5b600160a060020a03823516919081019060408101602082013564010000000081111561051f57600080fd5b82018360208201111561053157600080fd5b8035906020019184600183028401116401000000008311171561055357600080fd5b5090925090506112b7565b34801561056a57600080fd5b506105916004803603602081101561058157600080fd5b5035600160a060020a03166113a4565b60405180806020018560058111156105a557fe5b60ff1681526020018415151515815260200180602001838103835287818151815260200191508051906020019080838360005b838110156105f05781810151838201526020016105d8565b50505050905090810190601f16801561061d5780820380516001836020036101000a031916815260200191505b50838103825284518152845160209182019186019080838360005b83811015610650578181015183820152602001610638565b50505050905090810190601f16801561067d5780820380516001836020036101000a031916815260200191505b50965050505050505060405180910390f35b34801561069b57600080fd5b5061043b60048036036101208110156106b357600080fd5b813591600160a060020a036020820135811692604083013592606081013592608082013581169260a08301359260c08101359092169160e081013591810190610120810161010082013564010000000081111561070f57600080fd5b82018360208201111561072157600080fd5b8035906020019184600183028401116401000000008311171561074357600080fd5b5090925090506114e7565b34801561075a57600080fd5b506102b86004803603604081101561077157600080fd5b5080359060200135600160a060020a0316611770565b34801561079357600080fd5b506102b8600480360360408110156107aa57600080fd5b50600160a060020a038135169060200135151561187d565b3480156107ce57600080fd5b50610308600480360360208110156107e557600080fd5b5035611976565b3480156107f857600080fd5b5061043b6004803603602081101561080f57600080fd5b50356119aa565b34801561082257600080fd5b506108496004803603602081101561083957600080fd5b5035600160a060020a03166119d4565b6040805160208082528351818301528351919283929083019185019080838360005b8381101561088357818101518382015260200161086b565b50505050905090810190601f1680156108b05780820380516001836020036101000a031916815260200191505b509250505060405180910390f35b3480156108ca57600080fd5b5061043b600480360360208110156108e157600080fd5b5035611a7f565b3480156108f457600080fd5b506102b86004803603604081101561090b57600080fd5b5080359060200135611aa9565b34801561092457600080fd5b5061043b6004803603602081101561093b57600080fd5b5035611bdf565b34801561094e57600080fd5b506102b86004803603604081101561096557600080fd5b50600160a060020a038135169060200135611c09565b34801561098757600080fd5b5061043b6004803603602081101561099e57600080fd5b5035611d0d565b3480156109b157600080fd5b506102b8600480360360408110156109c857600080fd5b600160a060020a0382351691908101906040810160208201356401000000008111156109f357600080fd5b820183602082011115610a0557600080fd5b80359060200191846001830284011164010000000083111715610a2757600080fd5b509092509050611d4e565b348015610a3e57600080fd5b5061084960048036036020811015610a5557600080fd5b5035611e38565b348015610a6857600080fd5b5061084960048036036020811015610a7f57600080fd5b5035600160a060020a0316611eb4565b348015610a9b57600080fd5b506102b860048036036040811015610ab257600080fd5b5080359060200135611f27565b348015610acb57600080fd5b506102b860048036036040811015610ae257600080fd5b5080359060200135612014565b348015610afb57600080fd5b5061043b60048036036020811015610b1257600080fd5b5035600160a060020a03166120fd565b348015610b2e57600080fd5b506102b860048036036040811015610b4557600080fd5b5080359060200135600160a060020a0316612127565b348015610b6757600080fd5b50610b8e60048036036020811015610b7e57600080fd5b5035600160a060020a0316612234565b604080519115158252519081900360200190f35b348015610bae57600080fd5b506102b860048036036040811015610bc557600080fd5b81359190810190604081016020820135640100000000811115610be757600080fd5b820183602082011115610bf957600080fd5b80359060200191846001830284011164010000000083111715610c1b57600080fd5b50909250905061225b565b6002805482908110610c3457fe5b6000918252602091829020600891909102018054600180830154600280850154600386015460048701546005880154600689015460078a018054604080516101009b8316159b909b026000190190911697909704601f81018d90048d028a018d01909752868952989b50600160a060020a039687169a949993989287169791968116957401000000000000000000000000000000000000000090910460ff1694919291830182828015610d285780601f10610cfd57610100808354040283529160200191610d28565b820191906000526020600020905b815481529060010190602001808311610d0b57829003601f168201915b5050505050905089565b6000546040805160e060020a63a16543790281523060048201523360248201529051600160a060020a039092169163a165437991604480820192602092909190829003018186803b158015610d8657600080fd5b505afa158015610d9a573d6000803e3d6000fd5b505050506040513d6020811015610db057600080fd5b50511515610df6576040805160e560020a62461bcd0281526020600482015260156024820152600080516020612458833981519152604482015290519081900360640190fd5b80600283815481101515610e0657fe5b9060005260206000209060080201600501819055505050565b6000546040805160e060020a63a16543790281523060048201523360248201529051600160a060020a039092169163a165437991604480820192602092909190829003018186803b158015610e7357600080fd5b505afa158015610e87573d6000803e3d6000fd5b505050506040513d6020811015610e9d57600080fd5b50511515610ee3576040805160e560020a62461bcd0281526020600482015260156024820152600080516020612458833981519152604482015290519081900360640190fd5b80600283815481101515610ef357fe5b906000526020600020906008020160040160006101000a815481600160a060020a030219169083600160a060020a031602179055505050565b600054600160a060020a031681565b6000546040805160e060020a63a16543790281523060048201523360248201529051600160a060020a039092169163a165437991604480820192602092909190829003018186803b158015610f8f57600080fd5b505afa158015610fa3573d6000803e3d6000fd5b505050506040513d6020811015610fb957600080fd5b50511515610fff576040805160e560020a62461bcd0281526020600482015260156024820152600080516020612458833981519152604482015290519081900360640190fd5b6040805160a06020601f89018190040282018101909252608081018781529091829190899089908190850183828082843760009201919091525050509082525060200185600581111561104e57fe5b600581111561105957fe5b8152602001841515815260200183838080601f0160208091040260200160405190810160405280939291908181526020018383808284376000920182905250939094525050600160a060020a038a168152600160209081526040909120835180519193506110cb92849291019061234e565b50602082015160018083018054909160ff19909116908360058111156110ed57fe5b021790555060408201516001820180549115156101000261ff00199092169190911790556060820151805161112c91600284019160209091019061234e565b50505050505050505050565b600060028281548110151561114957fe5b9060005260206000209060080201600001549050919050565b600060028281548110151561117357fe5b6000918252602090912060089091020160010154600160a060020a031692915050565b60006002828154811015156111a757fe5b6000918252602090912060089091020160040154600160a060020a031692915050565b6000546040805160e060020a63a16543790281523060048201523360248201529051600160a060020a039092169163a165437991604480820192602092909190829003018186803b15801561121e57600080fd5b505afa158015611232573d6000803e3d6000fd5b505050506040513d602081101561124857600080fd5b5051151561128e576040805160e560020a62461bcd0281526020600482015260156024820152600080516020612458833981519152604482015290519081900360640190fd5b8060028381548110151561129e57fe5b9060005260206000209060080201600301819055505050565b6000546040805160e060020a63a16543790281523060048201523360248201529051600160a060020a039092169163a165437991604480820192602092909190829003018186803b15801561130b57600080fd5b505afa15801561131f573d6000803e3d6000fd5b505050506040513d602081101561133557600080fd5b5051151561137b576040805160e560020a62461bcd0281526020600482015260156024820152600080516020612458833981519152604482015290519081900360640190fd5b600160a060020a038316600090815260016020526040902061139e9083836123cc565b50505050565b60016020818152600092835260409283902080548451600294821615610100026000190190911693909304601f81018390048302840183019094528383529283918301828280156114365780601f1061140b57610100808354040283529160200191611436565b820191906000526020600020905b81548152906001019060200180831161141957829003601f168201915b50505050600183810154600280860180546040805160206101009784161588026000190190931694909404601f8101839004830285018301909152808452969760ff80861698969095049094169550929391929091908301828280156114dd5780601f106114b2576101008083540402835291602001916114dd565b820191906000526020600020905b8154815290600101906020018083116114c057829003601f168201915b5050505050905084565b600080546040805160e060020a63a16543790281523060048201523360248201529051600160a060020a039092169163a165437991604480820192602092909190829003018186803b15801561153c57600080fd5b505afa158015611550573d6000803e3d6000fd5b505050506040513d602081101561156657600080fd5b505115156115ac576040805160e560020a62461bcd0281526020600482015260156024820152600080516020612458833981519152604482015290519081900360640190fd5b60006002610120604051908101604052808e81526020018d600160a060020a031681526020018c81526020018b81526020018a600160a060020a0316815260200189815260200188600160a060020a0316815260200187600381111561160e57fe5b600381111561161957fe5b815260200186868080601f016020809104026020016040519081016040528093929190818152602001838380828437600092018290525093909452505083546001808201808755958352602092839020855160089093020191825591840151918101805473ffffffffffffffffffffffffffffffffffffffff19908116600160a060020a03948516179091556040850151600283015560608501516003808401919091556080860151600484018054841691861691909117905560a0860151600584015560c086015160068401805490931694169390931780825560e08601519294509192909174ff00000000000000000000000000000000000000001916907401000000000000000000000000000000000000000090849081111561173b57fe5b0217905550610100820151805161175c91600784019160209091019061234e565b50919e9d5050505050505050505050505050565b6000546040805160e060020a63a16543790281523060048201523360248201529051600160a060020a039092169163a165437991604480820192602092909190829003018186803b1580156117c457600080fd5b505afa1580156117d8573d6000803e3d6000fd5b505050506040513d60208110156117ee57600080fd5b50511515611834576040805160e560020a62461bcd0281526020600482015260156024820152600080516020612458833981519152604482015290519081900360640190fd5b8060028381548110151561184457fe5b906000526020600020906008020160010160006101000a815481600160a060020a030219169083600160a060020a031602179055505050565b6000546040805160e060020a63a16543790281523060048201523360248201529051600160a060020a039092169163a165437991604480820192602092909190829003018186803b1580156118d157600080fd5b505afa1580156118e5573d6000803e3d6000fd5b505050506040513d60208110156118fb57600080fd5b50511515611941576040805160e560020a62461bcd0281526020600482015260156024820152600080516020612458833981519152604482015290519081900360640190fd5b600160a060020a0390911660009081526001602081905260409091200180549115156101000261ff0019909216919091179055565b600060028281548110151561198757fe5b6000918252602090912060089091020160060154600160a060020a031692915050565b60006002828154811015156119bb57fe5b9060005260206000209060080201600301549050919050565b600160a060020a0381166000908152600160208181526040928390206002908101805485519481161561010002600019011691909104601f81018390048302840183019094528383526060939091830182828015611a735780601f10611a4857610100808354040283529160200191611a73565b820191906000526020600020905b815481529060010190602001808311611a5657829003601f168201915b50505050509050919050565b6000600282815481101515611a9057fe5b9060005260206000209060080201600201549050919050565b6000546040805160e060020a63a16543790281523060048201523360248201529051600160a060020a039092169163a165437991604480820192602092909190829003018186803b158015611afd57600080fd5b505afa158015611b11573d6000803e3d6000fd5b505050506040513d6020811015611b2757600080fd5b50511515611b6d576040805160e560020a62461bcd0281526020600482015260156024820152600080516020612458833981519152604482015290519081900360640190fd5b806003811115611b7957fe5b6002805484908110611b8757fe5b60009182526020909120600660089092020101805474ff0000000000000000000000000000000000000000191674010000000000000000000000000000000000000000836003811115611bd657fe5b02179055505050565b6000600282815481101515611bf057fe5b9060005260206000209060080201600501549050919050565b6000546040805160e060020a63a16543790281523060048201523360248201529051600160a060020a039092169163a165437991604480820192602092909190829003018186803b158015611c5d57600080fd5b505afa158015611c71573d6000803e3d6000fd5b505050506040513d6020811015611c8757600080fd5b50511515611ccd576040805160e560020a62461bcd0281526020600482015260156024820152600080516020612458833981519152604482015290519081900360640190fd5b806005811115611cd957fe5b600160a060020a038316600090815260016020819052604090912081018054909160ff1990911690836005811115611bd657fe5b6000600282815481101515611d1e57fe5b906000526020600020906008020160060160149054906101000a900460ff166003811115611d4857fe5b92915050565b6000546040805160e060020a63a16543790281523060048201523360248201529051600160a060020a039092169163a165437991604480820192602092909190829003018186803b158015611da257600080fd5b505afa158015611db6573d6000803e3d6000fd5b505050506040513d6020811015611dcc57600080fd5b50511515611e12576040805160e560020a62461bcd0281526020600482015260156024820152600080516020612458833981519152604482015290519081900360640190fd5b600160a060020a038316600090815260016020526040902061139e9060020183836123cc565b6060600282815481101515611e4957fe5b6000918252602091829020600760089092020101805460408051601f6002600019610100600187161502019094169390930492830185900485028101850190915281815292830182828015611a735780601f10611a4857610100808354040283529160200191611a73565b600160a060020a03811660009081526001602081815260409283902080548451600294821615610100026000190190911693909304601f81018390048302840183019094528383526060939091830182828015611a735780601f10611a4857610100808354040283529160200191611a73565b6000546040805160e060020a63a16543790281523060048201523360248201529051600160a060020a039092169163a165437991604480820192602092909190829003018186803b158015611f7b57600080fd5b505afa158015611f8f573d6000803e3d6000fd5b505050506040513d6020811015611fa557600080fd5b50511515611feb576040805160e560020a62461bcd0281526020600482015260156024820152600080516020612458833981519152604482015290519081900360640190fd5b80600283815481101515611ffb57fe5b9060005260206000209060080201600201819055505050565b6000546040805160e060020a63a16543790281523060048201523360248201529051600160a060020a039092169163a165437991604480820192602092909190829003018186803b15801561206857600080fd5b505afa15801561207c573d6000803e3d6000fd5b505050506040513d602081101561209257600080fd5b505115156120d8576040805160e560020a62461bcd0281526020600482015260156024820152600080516020612458833981519152604482015290519081900360640190fd5b806002838154811015156120e857fe5b60009182526020909120600890910201555050565b600160a060020a03811660009081526001602081905260408220015460ff166005811115611d4857fe5b6000546040805160e060020a63a16543790281523060048201523360248201529051600160a060020a039092169163a165437991604480820192602092909190829003018186803b15801561217b57600080fd5b505afa15801561218f573d6000803e3d6000fd5b505050506040513d60208110156121a557600080fd5b505115156121eb576040805160e560020a62461bcd0281526020600482015260156024820152600080516020612458833981519152604482015290519081900360640190fd5b806002838154811015156121fb57fe5b906000526020600020906008020160060160006101000a815481600160a060020a030219169083600160a060020a031602179055505050565b600160a060020a031660009081526001602081905260409091200154610100900460ff1690565b6000546040805160e060020a63a16543790281523060048201523360248201529051600160a060020a039092169163a165437991604480820192602092909190829003018186803b1580156122af57600080fd5b505afa1580156122c3573d6000803e3d6000fd5b505050506040513d60208110156122d957600080fd5b5051151561231f576040805160e560020a62461bcd0281526020600482015260156024820152600080516020612458833981519152604482015290519081900360640190fd5b818160028581548110151561233057fe5b9060005260206000209060080201600701919061139e9291906123cc565b828054600181600116156101000203166002900490600052602060002090601f016020900481019282601f1061238f57805160ff19168380011785556123bc565b828001600101855582156123bc579182015b828111156123bc5782518255916020019190600101906123a1565b506123c892915061243a565b5090565b828054600181600116156101000203166002900490600052602060002090601f016020900481019282601f1061240d5782800160ff198235161785556123bc565b828001600101855582156123bc579182015b828111156123bc57823582559160200191906001019061241f565b61245491905b808211156123c85760008155600101612440565b9056fe53656e646572206973206e6f7420616c6c6f7765640000000000000000000000a165627a7a7230582065ab4d1b8e330806fa45a41b054cc0b2fbabf15fa902931b6824e81285a4fcc30029",
  "source": "pragma solidity ^0.5.0;\r\n\r\nimport \"../Registry/IWfcRegistry.sol\";\r\n\r\nimport \"./IWfcHelpRequestStorage.sol\";\r\n\r\n/**\r\n * @dev Storage contract implementing all getter and setter of the variables \r\n *  of help request that work as a decentrlized filter for organizations and fundraisings\r\n */\r\n\r\ncontract WfcHelpRequestStorage is IWfcHelpRequestStorage {\r\n    \r\n    /**\r\n     * @dev address of the registry this contract is linked to\r\n     */\r\n    IWfcRegistry public wfcRegistry;\r\n    \r\n    enum StatusRegistration {NOT_EXISTING, PROPOSED, APPROVED, REFUSED, REVOKED, BLOCKED}\r\n    \r\n    struct OrganziationRef {\r\n        string dataUrlPropose;\r\n        StatusRegistration status;\r\n        bool isUnderInvestigation;\r\n        string dataUrlInvestigationRequest;\r\n    }\r\n    \r\n    /**\r\n     * @dev mapping that associate an Eth address to an organization\r\n     */\r\n    mapping(address => OrganziationRef) public organizations;\r\n    \r\n    enum StatusProposal {PROPOSED, REVOKED, REFUSED, APPROVED}\r\n    \r\n    struct FundraisingProposal {\r\n        bytes32 line;\r\n        address organization;\r\n        uint256 softcap;\r\n        uint256 hardcap;\r\n        address currency;\r\n        uint256 timeout;\r\n        address destination;\r\n        StatusProposal proposalStatus;\r\n        string fundraisingDataUrl;\r\n    }\r\n    \r\n    /**\r\n     * @dev array that contains all fundraising proposal by registred organizations\r\n     */\r\n    FundraisingProposal[] public proposals;\r\n    \r\n    modifier onlyAllowedLogicalContract {\r\n        require(wfcRegistry.isAllowed(address(this), msg.sender), \"Sender is not allowed\");\r\n        _;\r\n    }\r\n    \r\n    /**\r\n     * @dev constructor that sets the address of the registry\r\n     */\r\n    constructor(IWfcRegistry _wfcRegistry) public {\r\n        require(address(_wfcRegistry) != address(0), \"Registry address is null\");\r\n        wfcRegistry = _wfcRegistry;\r\n    }\r\n    \r\n    /**\r\n     * @dev See {IWfcHelpRequestStorage-setOrganization}\r\n     */\r\n    function setOrganization(address _organizationAddress, string calldata _dataUrlPropose, uint256 _status, bool _isUnderInvestigation, string calldata _dataUrlInvestigationRequest) external onlyAllowedLogicalContract {\r\n        organizations[_organizationAddress] = OrganziationRef(_dataUrlPropose, StatusRegistration(_status), _isUnderInvestigation, _dataUrlInvestigationRequest);\r\n    }\r\n    \r\n    /**\r\n     * @dev See {IWfcHelpRequestStorage-setOrganizationUrlPropose}\r\n     */\r\n    function setOrganizationUrlPropose(address _organizationAddress, string calldata _dataUrlPropose) external onlyAllowedLogicalContract {\r\n        organizations[_organizationAddress].dataUrlPropose = _dataUrlPropose;\r\n    }\r\n    \r\n    /**\r\n     * @dev See {IWfcHelpRequestStorage-getOrganizationUrlPropose}\r\n     */ \r\n    function getOrganizationUrlPropose(address _organizationAddress) public view returns(string memory) {\r\n        return organizations[_organizationAddress].dataUrlPropose;\r\n    }\r\n     \r\n    /**\r\n     * @dev See {IWfcHelpRequestStorage-setOrganizationStatus}\r\n     */  \r\n    function setOrganizationStatus(address _organizationAddress, uint256 _status) external onlyAllowedLogicalContract {\r\n        organizations[_organizationAddress].status = StatusRegistration(_status);\r\n    }\r\n     \r\n    /**\r\n     * @dev See {IWfcHelpRequestStorage-getOrganizationStatus}\r\n     */  \r\n    function getOrganizationStatus(address _organizationAddress) public view returns(uint256) {\r\n        return uint256(organizations[_organizationAddress].status);\r\n    }\r\n     \r\n    /**\r\n     * @dev See {IWfcHelpRequestStorage-setOrganizationUnderInvestigation}\r\n     */\r\n    function setOrganizationUnderInvestigation(address _organizationAddress, bool _isUnderInvestigation) external onlyAllowedLogicalContract {\r\n        organizations[_organizationAddress].isUnderInvestigation = _isUnderInvestigation;\r\n    }\r\n    \r\n    /**\r\n     * @dev See {IWfcHelpRequestStorage-getOrganizationUnderInvestigation}\r\n     */\r\n    function getOrganizationUnderInvestigation(address _organizationAddress) public view returns (bool) {\r\n        return organizations[_organizationAddress].isUnderInvestigation;\r\n    }\r\n     \r\n    /**\r\n     * @dev See {IWfcHelpRequestStorage-setOrganizationUrlInvestigation}\r\n     */\r\n    function setOrganizationUrlInvestigation(address _organizationAddress, string calldata _dataUrlInvestigationRequest) external onlyAllowedLogicalContract {\r\n        organizations[_organizationAddress].dataUrlInvestigationRequest = _dataUrlInvestigationRequest;\r\n    }\r\n     \r\n    /**\r\n     * @dev See {IWfcHelpRequestStorage-getOrganizationUrlInvestigation}\r\n     */\r\n    function getOrganizationUrlInvestigation(address _organizationAddress) public view returns(string memory) {\r\n        return organizations[_organizationAddress].dataUrlInvestigationRequest;\r\n    }\r\n     \r\n    /**\r\n      * @dev See {IWfcHelpRequestStorage-addFundraisingProposal}\r\n      */\r\n    function addFundraisingProposal(bytes32 _line, address _organization, uint256 _softcap, uint256 _hardcap, address _currency, uint256 _timeout, address _destination, uint256 _proposalStatus, string calldata _fundraisingDataUrl) external onlyAllowedLogicalContract returns(uint256) {\r\n        uint256 length = proposals.push(FundraisingProposal(_line, _organization, _softcap, _hardcap, _currency, _timeout, _destination, StatusProposal(_proposalStatus), _fundraisingDataUrl));\r\n        return length;\r\n\t}\r\n    \r\n    /**\r\n      * @dev See {IWfcHelpRequestStorage-setFundraisingLine}\r\n      */\r\n    function setFundraisingLine(uint256 _index, bytes32 _line) external onlyAllowedLogicalContract {\r\n        proposals[_index].line = _line;\r\n    }\r\n    \r\n    /**\r\n     * @dev See {IWfcHelpRequestStorage-getFundraisingLine}\r\n     */\r\n    function getFundraisingLine(uint256 _index) public view returns(bytes32) {\r\n        return proposals[_index].line;\r\n    }\r\n    \r\n    /**\r\n     * @dev See {IWfcHelpRequestStorage-setFundraisingOrganization}\r\n     */\r\n    function setFundraisingOrganization(uint256 _index, address _organization) external onlyAllowedLogicalContract {\r\n        proposals[_index].organization = _organization;\r\n    }\r\n    \r\n    /**\r\n     * @dev See {IWfcHelpRequestStorage-getFundraisingOrganization}\r\n     */\r\n    function getFundraisingOrganization(uint256 _index) public view returns(address) {\r\n        return proposals[_index].organization;\r\n    }\r\n    \r\n    /**\r\n     * @dev See {IWfcHelpRequestStorage-setFundraisingSoftcap}\r\n     */\r\n    function setFundraisingSoftcap(uint256 _index, uint256 _softcap) external onlyAllowedLogicalContract {\r\n        proposals[_index].softcap = _softcap;\r\n    }\r\n    \r\n    /**\r\n     * @dev See {IWfcHelpRequestStorage-getFundraisingSoftcap}\r\n     */\r\n    function getFundraisingSoftcap(uint256 _index) public view returns(uint256) {\r\n        return proposals[_index].softcap;\r\n    }\r\n    \r\n    /**\r\n     * @dev See {IWfcHelpRequestStorage-setFundraisingHardcap}\r\n     */\r\n    function setFundraisingHardcap(uint256 _index, uint256 _hardcap) external onlyAllowedLogicalContract {\r\n        proposals[_index].hardcap = _hardcap;\r\n    }\r\n    \r\n    /**\r\n     * @dev See {IWfcHelpRequestStorage-getFundraisingHardcap}\r\n     */\r\n    function getFundraisingHardcap(uint256 _index) public view returns(uint256) {\r\n        return proposals[_index].hardcap;\r\n    }\r\n    \r\n    /**\r\n     * @dev See {IWfcHelpRequestStorage-setFundraisingToken}\r\n     */\r\n    function setFundraisingToken(uint256 _index, address _token) external onlyAllowedLogicalContract {\r\n        proposals[_index].currency = _token;\r\n    }\r\n    \r\n    /**\r\n     * @dev See {IWfcHelpRequestStorage-setFundraisingToken}\r\n     */\r\n    function getFundraisingToken(uint256 _index) public view returns(address) {\r\n        return proposals[_index].currency;\r\n    }\r\n    \r\n    /**\r\n     * @dev See {IWfcHelpRequestStorage-setFundraisingTimeout}\r\n     */\r\n    function setFundraisingTimeout(uint256 _index, uint256 _timeout) external onlyAllowedLogicalContract {\r\n        proposals[_index].timeout = _timeout;\r\n    }\r\n    \r\n    /**\r\n     * @dev See {IWfcHelpRequestStorage-getFundraisingTimeout}\r\n     */\r\n    function getFundraisingTimeout(uint256 _index) public view returns(uint256) {\r\n        return proposals[_index].timeout;\r\n    }\r\n    \r\n    /**\r\n     * @dev See {IWfcHelpRequestStorage-setFundraisingDestination}\r\n     */\r\n    function setFundraisingDestination(uint256 _index, address _destination) external onlyAllowedLogicalContract {\r\n        proposals[_index].destination = _destination;\r\n    }\r\n    \r\n    /**\r\n     * @dev See {IWfcHelpRequestStorage-getFundraisingDestination}\r\n     */\r\n    function getFundraisingDestination(uint256 _index) public view returns(address) {\r\n        return proposals[_index].destination;\r\n    }\r\n    \r\n    /**\r\n     * @dev See {IWfcHelpRequestStorage-setFundraisingStatus}\r\n     */\r\n    function setFundraisingStatus(uint256 _index, uint256 _status) external onlyAllowedLogicalContract {\r\n        proposals[_index].proposalStatus = StatusProposal(_status);\r\n    }\r\n    \r\n    /**\r\n     * @dev See {IWfcHelpRequestStorage-getFundraisingStatus}\r\n     */\r\n    function getFundraisingStatus(uint256 _index) public view returns(uint256) {\r\n        return uint256(proposals[_index].proposalStatus);\r\n    }\r\n    \r\n    /**\r\n     * @dev See {IWfcHelpRequestStorage-setFundraisingDataUrl}\r\n     */\r\n    function setFundraisingDataUrl(uint256 _index, string calldata _fundraisingDataUrl) external onlyAllowedLogicalContract {\r\n        proposals[_index].fundraisingDataUrl = _fundraisingDataUrl;\r\n    }\r\n    \r\n    /**\r\n     * @dev See {IWfcHelpRequestStorage-getFundraisingDataUrl}\r\n     */\r\n    function getFundraisingDataUrl(uint256 _index) public view returns(string memory) {\r\n        return proposals[_index].fundraisingDataUrl;\r\n    }\r\n    \r\n}",
  "sourcePath": "C:/Users/Alessandro/solidity_work/WFCplatform/contracts/Storage/WfcHelpRequestStorage.sol",
  "compiler": {
    "name": "solc",
    "version": "0.5.0+commit.1d4f565a.Emscripten.clang"
  },
  "schemaVersion": "3.0.0",
  "updatedAt": "2019-11-26T02:01:06.857Z",
  "devdoc": {
    "details": "Storage contract implementing all getter and setter of the variables \r of help request that work as a decentrlized filter for organizations and fundraisings\r",
    "methods": {
      "addFundraisingProposal(bytes32,address,uint256,uint256,address,uint256,address,uint256,string)": {
        "details": "See {IWfcHelpRequestStorage-addFundraisingProposal}\r"
      },
      "constructor": {
        "details": "constructor that sets the address of the registry\r"
      },
      "getFundraisingDataUrl(uint256)": {
        "details": "See {IWfcHelpRequestStorage-getFundraisingDataUrl}\r"
      },
      "getFundraisingDestination(uint256)": {
        "details": "See {IWfcHelpRequestStorage-getFundraisingDestination}\r"
      },
      "getFundraisingHardcap(uint256)": {
        "details": "See {IWfcHelpRequestStorage-getFundraisingHardcap}\r"
      },
      "getFundraisingLine(uint256)": {
        "details": "See {IWfcHelpRequestStorage-getFundraisingLine}\r"
      },
      "getFundraisingOrganization(uint256)": {
        "details": "See {IWfcHelpRequestStorage-getFundraisingOrganization}\r"
      },
      "getFundraisingSoftcap(uint256)": {
        "details": "See {IWfcHelpRequestStorage-getFundraisingSoftcap}\r"
      },
      "getFundraisingStatus(uint256)": {
        "details": "See {IWfcHelpRequestStorage-getFundraisingStatus}\r"
      },
      "getFundraisingTimeout(uint256)": {
        "details": "See {IWfcHelpRequestStorage-getFundraisingTimeout}\r"
      },
      "getFundraisingToken(uint256)": {
        "details": "See {IWfcHelpRequestStorage-setFundraisingToken}\r"
      },
      "getOrganizationStatus(address)": {
        "details": "See {IWfcHelpRequestStorage-getOrganizationStatus}\r"
      },
      "getOrganizationUnderInvestigation(address)": {
        "details": "See {IWfcHelpRequestStorage-getOrganizationUnderInvestigation}\r"
      },
      "getOrganizationUrlInvestigation(address)": {
        "details": "See {IWfcHelpRequestStorage-getOrganizationUrlInvestigation}\r"
      },
      "getOrganizationUrlPropose(address)": {
        "details": "See {IWfcHelpRequestStorage-getOrganizationUrlPropose}\r"
      },
      "setFundraisingDataUrl(uint256,string)": {
        "details": "See {IWfcHelpRequestStorage-setFundraisingDataUrl}\r"
      },
      "setFundraisingDestination(uint256,address)": {
        "details": "See {IWfcHelpRequestStorage-setFundraisingDestination}\r"
      },
      "setFundraisingHardcap(uint256,uint256)": {
        "details": "See {IWfcHelpRequestStorage-setFundraisingHardcap}\r"
      },
      "setFundraisingLine(uint256,bytes32)": {
        "details": "See {IWfcHelpRequestStorage-setFundraisingLine}\r"
      },
      "setFundraisingOrganization(uint256,address)": {
        "details": "See {IWfcHelpRequestStorage-setFundraisingOrganization}\r"
      },
      "setFundraisingSoftcap(uint256,uint256)": {
        "details": "See {IWfcHelpRequestStorage-setFundraisingSoftcap}\r"
      },
      "setFundraisingStatus(uint256,uint256)": {
        "details": "See {IWfcHelpRequestStorage-setFundraisingStatus}\r"
      },
      "setFundraisingTimeout(uint256,uint256)": {
        "details": "See {IWfcHelpRequestStorage-setFundraisingTimeout}\r"
      },
      "setFundraisingToken(uint256,address)": {
        "details": "See {IWfcHelpRequestStorage-setFundraisingToken}\r"
      },
      "setOrganization(address,string,uint256,bool,string)": {
        "details": "See {IWfcHelpRequestStorage-setOrganization}\r"
      },
      "setOrganizationStatus(address,uint256)": {
        "details": "See {IWfcHelpRequestStorage-setOrganizationStatus}\r"
      },
      "setOrganizationUnderInvestigation(address,bool)": {
        "details": "See {IWfcHelpRequestStorage-setOrganizationUnderInvestigation}\r"
      },
      "setOrganizationUrlInvestigation(address,string)": {
        "details": "See {IWfcHelpRequestStorage-setOrganizationUrlInvestigation}\r"
      },
      "setOrganizationUrlPropose(address,string)": {
        "details": "See {IWfcHelpRequestStorage-setOrganizationUrlPropose}\r"
      }
    }
  },
  "userdoc": {
    "methods": {}
  }
}