{
  "contractName": "WfcManagmentLogical",
  "abi": [
    {
      "constant": true,
      "inputs": [],
      "name": "wfcRegistry",
      "outputs": [
        {
          "name": "",
          "type": "address"
        }
      ],
      "payable": false,
      "stateMutability": "view",
      "type": "function"
    },
    {
      "constant": true,
      "inputs": [],
      "name": "storageContractName",
      "outputs": [
        {
          "name": "",
          "type": "bytes32"
        }
      ],
      "payable": false,
      "stateMutability": "view",
      "type": "function"
    },
    {
      "inputs": [
        {
          "name": "_wfcRegistry",
          "type": "address"
        },
        {
          "name": "_storageContractName",
          "type": "string"
        }
      ],
      "payable": false,
      "stateMutability": "nonpayable",
      "type": "constructor"
    },
    {
      "anonymous": false,
      "inputs": [
        {
          "indexed": true,
          "name": "_tokenAddress",
          "type": "address"
        },
        {
          "indexed": false,
          "name": "_previous",
          "type": "bool"
        },
        {
          "indexed": false,
          "name": "_isActivated",
          "type": "bool"
        }
      ],
      "name": "SetTokenLog",
      "type": "event"
    },
    {
      "anonymous": false,
      "inputs": [
        {
          "indexed": true,
          "name": "_ServiceLineName",
          "type": "string"
        },
        {
          "indexed": false,
          "name": "_previous",
          "type": "bool"
        },
        {
          "indexed": false,
          "name": "_isActivated",
          "type": "bool"
        }
      ],
      "name": "SetServiceLineLog",
      "type": "event"
    },
    {
      "anonymous": false,
      "inputs": [
        {
          "indexed": true,
          "name": "_donationSplitName",
          "type": "string"
        },
        {
          "indexed": false,
          "name": "_previousValue",
          "type": "uint256"
        },
        {
          "indexed": false,
          "name": "newValue",
          "type": "uint256"
        }
      ],
      "name": "SetDonationSplitLog",
      "type": "event"
    },
    {
      "anonymous": false,
      "inputs": [
        {
          "indexed": true,
          "name": "_settingName",
          "type": "string"
        },
        {
          "indexed": false,
          "name": "_prevoiusSettingValue",
          "type": "uint256"
        },
        {
          "indexed": false,
          "name": "_newSettingValue",
          "type": "uint256"
        }
      ],
      "name": "SetSettingLog",
      "type": "event"
    },
    {
      "constant": false,
      "inputs": [
        {
          "name": "_tokenAddress",
          "type": "address"
        },
        {
          "name": "_isActivated",
          "type": "bool"
        }
      ],
      "name": "setToken",
      "outputs": [],
      "payable": false,
      "stateMutability": "nonpayable",
      "type": "function"
    },
    {
      "constant": false,
      "inputs": [
        {
          "name": "_lineName",
          "type": "string"
        },
        {
          "name": "_isActivated",
          "type": "bool"
        }
      ],
      "name": "setServiceLine",
      "outputs": [],
      "payable": false,
      "stateMutability": "nonpayable",
      "type": "function"
    },
    {
      "constant": false,
      "inputs": [
        {
          "name": "_donationSplitName",
          "type": "string"
        },
        {
          "name": "_splitValue",
          "type": "uint256"
        }
      ],
      "name": "setDonationSplit",
      "outputs": [],
      "payable": false,
      "stateMutability": "nonpayable",
      "type": "function"
    },
    {
      "constant": false,
      "inputs": [
        {
          "name": "_settingName",
          "type": "string"
        },
        {
          "name": "_newSettingValue",
          "type": "uint256"
        }
      ],
      "name": "setSetting",
      "outputs": [],
      "payable": false,
      "stateMutability": "nonpayable",
      "type": "function"
    }
  ],
  "bytecode": "0x608060405234801561001057600080fd5b5060405161136a38038061136a8339810180604052604081101561003357600080fd5b81516020830180519193928301929164010000000081111561005457600080fd5b8201602081018481111561006757600080fd5b815164010000000081118282018710171561008157600080fd5b50909350505050600160a060020a03821615156100ff57604080517f08c379a000000000000000000000000000000000000000000000000000000000815260206004820152601b60248201527f77666352656769737472792061646472657373206973206e756c6c0000000000604482015290519081900360640190fd5b60008054600160a060020a031916600160a060020a0384161790556101308164010000000061013b81026110d91704565b600155506101c49050565b60006020825110801561014f575060008251115b15156101bc57604080517f08c379a000000000000000000000000000000000000000000000000000000000815260206004820152601e60248201527f537472696e6720746f6f206c6f6e67206f72206e756c6c20737472696e670000604482015290519081900360640190fd5b506020015190565b611197806101d36000396000f3fe60806040526004361061005e5763ffffffff60e060020a600035041663254f611881146100635780633816a292146100945780633fee9216146100d1578063453ed2df146100f8578063ae53050414610175578063c9a26d1a146101f2575b600080fd5b34801561006f57600080fd5b50610078610271565b60408051600160a060020a039092168252519081900360200190f35b3480156100a057600080fd5b506100cf600480360360408110156100b757600080fd5b50600160a060020a0381351690602001351515610280565b005b3480156100dd57600080fd5b506100e6610593565b60408051918252519081900360200190f35b34801561010457600080fd5b506100cf6004803603604081101561011b57600080fd5b81019060208101813564010000000081111561013657600080fd5b82018360208201111561014857600080fd5b8035906020019184600183028401116401000000008311171561016a57600080fd5b919350915035610599565b34801561018157600080fd5b506100cf6004803603604081101561019857600080fd5b8101906020810181356401000000008111156101b357600080fd5b8201836020820111156101c557600080fd5b803590602001918460018302840111640100000000831117156101e757600080fd5b919350915035610b11565b3480156101fe57600080fd5b506100cf6004803603604081101561021557600080fd5b81019060208101813564010000000081111561023057600080fd5b82018360208201111561024257600080fd5b8035906020019184600183028401116401000000008311171561026457600080fd5b9193509150351515610df3565b600054600160a060020a031681565b6000809054906101000a9004600160a060020a0316600160a060020a031663f270da7b6040518163ffffffff1660e060020a02815260040160206040518083038186803b1580156102d057600080fd5b505afa1580156102e4573d6000803e3d6000fd5b505050506040513d60208110156102fa57600080fd5b5051600160a060020a03163314610349576040805160e560020a62461bcd02815260206004820152601f602482015260008051602061114c833981519152604482015290519081900360640190fd5b600160a060020a03821615156103a9576040805160e560020a62461bcd02815260206004820152601560248201527f546f6b656e2061646472657373206973206e756c6c0000000000000000000000604482015290519081900360640190fd5b600080546001546040805160e560020a6306acef43028152600481019290925251600160a060020a039092169163d59de86091602480820192602092909190829003018186803b1580156103fc57600080fd5b505afa158015610410573d6000803e3d6000fd5b505050506040513d602081101561042657600080fd5b5051604080517fb8d7b669000000000000000000000000000000000000000000000000000000008152600160a060020a03868116600483015291519293506000929184169163b8d7b66991602480820192602092909190829003018186803b15801561049157600080fd5b505afa1580156104a5573d6000803e3d6000fd5b505050506040513d60208110156104bb57600080fd5b5051604080517f2a0b5e9e000000000000000000000000000000000000000000000000000000008152600160a060020a0387811660048301528615156024830152915192935090841691632a0b5e9e9160448082019260009290919082900301818387803b15801561052c57600080fd5b505af1158015610540573d6000803e3d6000fd5b505060408051841515815286151560208201528151600160a060020a03891694507fa7c4dff0e959f9328c53cd427ff03429d7203db014757d17726db05bef3c617b93509081900390910190a250505050565b60015481565b6000809054906101000a9004600160a060020a0316600160a060020a031663f270da7b6040518163ffffffff1660e060020a02815260040160206040518083038186803b1580156105e957600080fd5b505afa1580156105fd573d6000803e3d6000fd5b505050506040513d602081101561061357600080fd5b5051600160a060020a03163314610662576040805160e560020a62461bcd02815260206004820152601f602482015260008051602061114c833981519152604482015290519081900360640190fd5b600080546001546040805160e560020a6306acef43028152600481019290925251600160a060020a039092169163d59de86091602480820192602092909190829003018186803b1580156106b557600080fd5b505afa1580156106c9573d6000803e3d6000fd5b505050506040513d60208110156106df57600080fd5b505160408051808201909152600581527f746f74616c00000000000000000000000000000000000000000000000000000060208201529091506000610723826110d9565b9050600061076687878080601f0160208091040260200160405190810160405280939291908181526020018383808284376000920191909152506110d992505050565b9050818114156107e6576040805160e560020a62461bcd02815260206004820152602860248201527f537472696e67206f6620646f6e6174696f6e732073706c697420657175616c2060448201527f746f20746f74616c000000000000000000000000000000000000000000000000606482015290519081900360840190fd5b600084600160a060020a031663c51d31f0836040518263ffffffff1660e060020a0281526004018082815260200191505060206040518083038186803b15801561082f57600080fd5b505afa158015610843573d6000803e3d6000fd5b505050506040513d602081101561085957600080fd5b5051604080517fe066159900000000000000000000000000000000000000000000000000000000815260048101859052602481018990529051919250600160a060020a0387169163e06615999160448082019260009290919082900301818387803b1580156108c757600080fd5b505af11580156108db573d6000803e3d6000fd5b5050505087876040518083838082843760408051939091018390038320878452602084018d905281519096507f876b6b86a6c4d55d11c16e2b308a90f5fcfdce6b679355c75c381e15c5cf8a4f95509283900301925050a2600085600160a060020a031663c51d31f0856040518263ffffffff1660e060020a0281526004018082815260200191505060206040518083038186803b15801561097c57600080fd5b505afa158015610990573d6000803e3d6000fd5b505050506040513d60208110156109a657600080fd5b505190508681018290036127108110610a09576040805160e560020a62461bcd02815260206004820152601960248201527f53706c69742070657263656e7461676520746f6f206869676800000000000000604482015290519081900360640190fd5b86600160a060020a031663e066159986836040518363ffffffff1660e060020a0281526004018083815260200182815260200192505050600060405180830381600087803b158015610a5a57600080fd5b505af1158015610a6e573d6000803e3d6000fd5b50505050856040518082805190602001908083835b60208310610aa25780518252601f199092019160209182019101610a83565b51815160001960209485036101000a019081169019919091161790526040805194909201849003842088855290840187905281519095507f876b6b86a6c4d55d11c16e2b308a90f5fcfdce6b679355c75c381e15c5cf8a4f94509283900301919050a250505050505050505050565b6000809054906101000a9004600160a060020a0316600160a060020a031663f270da7b6040518163ffffffff1660e060020a02815260040160206040518083038186803b158015610b6157600080fd5b505afa158015610b75573d6000803e3d6000fd5b505050506040513d6020811015610b8b57600080fd5b5051600160a060020a03163314610bda576040805160e560020a62461bcd02815260206004820152601f602482015260008051602061114c833981519152604482015290519081900360640190fd5b600080546001546040805160e560020a6306acef43028152600481019290925251600160a060020a039092169163d59de86091602480820192602092909190829003018186803b158015610c2d57600080fd5b505afa158015610c41573d6000803e3d6000fd5b505050506040513d6020811015610c5757600080fd5b5051604080516020601f8701819004810282018101909252858152919250600091610c9c9187908790819084018382808284376000920191909152506110d992505050565b9050600082600160a060020a031663e3822207836040518263ffffffff1660e060020a0281526004018082815260200191505060206040518083038186803b158015610ce757600080fd5b505afa158015610cfb573d6000803e3d6000fd5b505050506040513d6020811015610d1157600080fd5b5051604080517fd2fab5da00000000000000000000000000000000000000000000000000000000815260048101859052602481018790529051919250600160a060020a0385169163d2fab5da9160448082019260009290919082900301818387803b158015610d7f57600080fd5b505af1158015610d93573d6000803e3d6000fd5b5050505085856040518083838082843760408051939091018390038320878452602084018b905281519096507f6e18111ed8a8fec13936c0690fe27349ae97ba80420bfb1bdf7565f110f6a03195509283900301925050a2505050505050565b6000809054906101000a9004600160a060020a0316600160a060020a031663f270da7b6040518163ffffffff1660e060020a02815260040160206040518083038186803b158015610e4357600080fd5b505afa158015610e57573d6000803e3d6000fd5b505050506040513d6020811015610e6d57600080fd5b5051600160a060020a03163314610ebc576040805160e560020a62461bcd02815260206004820152601f602482015260008051602061114c833981519152604482015290519081900360640190fd5b600080546001546040805160e560020a6306acef43028152600481019290925251600160a060020a039092169163d59de86091602480820192602092909190829003018186803b158015610f0f57600080fd5b505afa158015610f23573d6000803e3d6000fd5b505050506040513d6020811015610f3957600080fd5b5051604080516020601f8701819004810282018101909252858152919250600091610f7e9187908790819084018382808284376000920191909152506110d992505050565b9050600082600160a060020a031663acae1799836040518263ffffffff1660e060020a0281526004018082815260200191505060206040518083038186803b158015610fc957600080fd5b505afa158015610fdd573d6000803e3d6000fd5b505050506040513d6020811015610ff357600080fd5b5051604080517fc95fc12c0000000000000000000000000000000000000000000000000000000081526004810185905286151560248201529051919250600160a060020a0385169163c95fc12c9160448082019260009290919082900301818387803b15801561106257600080fd5b505af1158015611076573d6000803e3d6000fd5b505050508585604051808383808284376040805193909101839003832087151584528a1515602085015281519096507f7d08939545d59f9d001370cb5b1ada088deb54def7933316a5e68f4e240a28af95509283900301925050a2505050505050565b6000602082511080156110ed575060008251115b1515611143576040805160e560020a62461bcd02815260206004820152601e60248201527f537472696e6720746f6f206c6f6e67206f72206e756c6c20737472696e670000604482015290519081900360640190fd5b50602001519056fe53656e64657220646966666572656e742066726f6d2044616f206f776e657200a165627a7a7230582014ccfd87d1fa4f1fba0efbf88ed728ac46bdcf19ac5d7ea3e06e22d31e3ea3fd0029",
  "source": "pragma solidity ^0.5.0;\r\n\r\nimport \"./utils/StringAsKey.sol\";\r\n\r\nimport \"./Registry/IWfcRegistry.sol\";\r\n\r\nimport \"./storage/IWfcManagmentStorage.sol\";\r\n\r\n/**\r\n * @dev logical contract that allow Dao to interact with the associated storage contract in order\r\n * to add and update functionalities of the platform\r\n */\r\ncontract WfcManagmentLogical {\r\n\r\n    using StringAsKey for string;\r\n\t\r\n    /**\r\n     * @dev address of the registry this contract is linked to\r\n     */\r\n    IWfcRegistry public wfcRegistry;\r\n\t\r\n\t/**\r\n     * @dev name in bytes of storage contract that this contract is linked through the registry\r\n     */\r\n    bytes32 public storageContractName;\r\n\r\n    /**\r\n     * @dev event emitted when a token is set\r\n     */\t \r\n    event SetTokenLog(address indexed _tokenAddress, bool _previous, bool _isActivated);\r\n\r\n    /**\r\n     * @dev event emitted when a service line is set\r\n     */\t\r\n    event SetServiceLineLog(string indexed _ServiceLineName, bool _previous, bool _isActivated);\r\n\r\n    /**\r\n     * @dev event emitted when a donation split percentage is set\r\n     */\t\r\n    event SetDonationSplitLog(string indexed _donationSplitName, uint256 _previousValue, uint256 newValue);\r\n\r\n    /**\r\n     * @dev event emitted when a platform setting is set\r\n     */\t\r\n    event SetSettingLog(string indexed _settingName, uint256 _prevoiusSettingValue, uint256 _newSettingValue);\r\n    \r\n    modifier onlyOwnerDao {\r\n        require(msg.sender == wfcRegistry.getOwnerDao(), \"Sender different from Dao owner\");\r\n        _;\r\n    }\r\n\r\n    /**\r\n     * @dev constructor that sets registry address and name of storage contract linked to this contract\r\n     */\r\n    constructor (IWfcRegistry _wfcRegistry, string memory _storageContractName) public {\r\n        require(address(_wfcRegistry) != address(0), \"wfcRegistry address is null\");\r\n        wfcRegistry = _wfcRegistry;\r\n        storageContractName = _storageContractName.convert();\r\n    }\r\n\r\n    /**\r\n     * @dev function that sets if a token is allowed as donation currency\r\n     */\r\n    function setToken (address _tokenAddress, bool _isActivated) external onlyOwnerDao {\r\n        require(_tokenAddress != address(0), \"Token address is null\");\r\n        IWfcManagmentStorage wfcManagmentStorage = IWfcManagmentStorage(wfcRegistry.storageContracts(storageContractName));\r\n        bool previous = wfcManagmentStorage.getTokenAddress(_tokenAddress);\r\n        wfcManagmentStorage.setTokenAddress(_tokenAddress, _isActivated);\r\n        emit SetTokenLog(_tokenAddress, previous, _isActivated);\r\n    }\r\n\r\n    /**\r\n     * @dev function that sets if a service line is allowed \r\n     */\r\n    function setServiceLine(string calldata _lineName, bool _isActivated) external onlyOwnerDao {\r\n        IWfcManagmentStorage wfcManagmentStorage = IWfcManagmentStorage(wfcRegistry.storageContracts(storageContractName));\r\n        bytes32 lineName = _lineName.convert();\r\n        bool previous = wfcManagmentStorage.getServiceLine(lineName);\r\n        wfcManagmentStorage.setServiceLine(lineName, _isActivated);\r\n        emit SetServiceLineLog(_lineName, previous, _isActivated);\r\n    }\r\n    \r\n    /**\r\n     * @dev function that set the percentage of split of between reserve, \r\n     * donation, same service line, all service line and the team\r\n     */\r\n    function setDonationSplit(string calldata _donationSplitName, uint256 _splitValue) external onlyOwnerDao {\r\n        IWfcManagmentStorage wfcManagmentStorage = IWfcManagmentStorage(wfcRegistry.storageContracts(storageContractName));\r\n        string memory _totalName = \"total\";\r\n        bytes32 totalName = _totalName.convert();\r\n        bytes32 donationSplitName = _donationSplitName.convert();\r\n        require(totalName != donationSplitName, \"String of donations split equal to total\");\r\n        uint256 previousSplitValue = wfcManagmentStorage.getDonationSplit(donationSplitName);\r\n        wfcManagmentStorage.setDonationSplit(donationSplitName, _splitValue);\r\n        emit SetDonationSplitLog(_donationSplitName, previousSplitValue, _splitValue);\r\n        uint256 previousTotalValue = wfcManagmentStorage.getDonationSplit(totalName);\r\n        uint256 newTotalValue = previousTotalValue + _splitValue - previousSplitValue;\r\n        require(newTotalValue < 10000, \"Split percentage too high\");\r\n        wfcManagmentStorage.setDonationSplit(totalName, newTotalValue);\r\n        emit SetDonationSplitLog(_totalName, previousTotalValue, newTotalValue);\r\n    }\r\n\r\n    /**\r\n     * @dev function that set Wfc platform general settings\r\n     */\r\n    function setSetting(string calldata _settingName, uint256 _newSettingValue) external onlyOwnerDao {\r\n        IWfcManagmentStorage wfcManagmentStorage = IWfcManagmentStorage(wfcRegistry.storageContracts(storageContractName));\r\n        bytes32 settingName = _settingName.convert();\r\n        uint256 prevoiusSettingValue = wfcManagmentStorage.getSetting(settingName);\r\n        wfcManagmentStorage.setSetting(settingName, _newSettingValue);\r\n        emit SetSettingLog(_settingName, prevoiusSettingValue, _newSettingValue);\r\n    }\r\n}\r\n\r\n\r\n\r\n\r\n",
  "sourcePath": "C:/Users/Alessandro/solidity_work/WFCplatform/contracts/WfcManagmentLogical.sol",
  "compiler": {
    "name": "solc",
    "version": "0.5.0+commit.1d4f565a.Emscripten.clang"
  },
  "schemaVersion": "3.0.0",
  "updatedAt": "2019-11-26T02:01:06.866Z",
  "devdoc": {
    "details": "logical contract that allow Dao to interact with the associated storage contract in order\r to add and update functionalities of the platform\r",
    "methods": {
      "constructor": {
        "details": "constructor that sets registry address and name of storage contract linked to this contract\r"
      },
      "setDonationSplit(string,uint256)": {
        "details": "function that set the percentage of split of between reserve, \r donation, same service line, all service line and the team\r"
      },
      "setServiceLine(string,bool)": {
        "details": "function that sets if a service line is allowed \r"
      },
      "setSetting(string,uint256)": {
        "details": "function that set Wfc platform general settings\r"
      },
      "setToken(address,bool)": {
        "details": "function that sets if a token is allowed as donation currency\r"
      }
    }
  },
  "userdoc": {
    "methods": {}
  }
}