{
  "contractName": "WfcRegistry",
  "abi": [
    {
      "constant": false,
      "inputs": [
        {
          "name": "newOwnerDao",
          "type": "address"
        }
      ],
      "name": "transferOwnershipDao",
      "outputs": [],
      "payable": false,
      "stateMutability": "nonpayable",
      "type": "function"
    },
    {
      "constant": true,
      "inputs": [],
      "name": "isOwnerDao",
      "outputs": [
        {
          "name": "",
          "type": "bool"
        }
      ],
      "payable": false,
      "stateMutability": "view",
      "type": "function"
    },
    {
      "constant": true,
      "inputs": [
        {
          "name": "",
          "type": "address"
        },
        {
          "name": "",
          "type": "address"
        }
      ],
      "name": "isAllowed",
      "outputs": [
        {
          "name": "",
          "type": "bool"
        }
      ],
      "payable": false,
      "stateMutability": "view",
      "type": "function"
    },
    {
      "constant": true,
      "inputs": [
        {
          "name": "",
          "type": "bytes32"
        }
      ],
      "name": "storageContracts",
      "outputs": [
        {
          "name": "",
          "type": "address"
        }
      ],
      "payable": false,
      "stateMutability": "view",
      "type": "function"
    },
    {
      "constant": true,
      "inputs": [],
      "name": "getOwnerDao",
      "outputs": [
        {
          "name": "",
          "type": "address"
        }
      ],
      "payable": false,
      "stateMutability": "view",
      "type": "function"
    },
    {
      "constant": true,
      "inputs": [
        {
          "name": "",
          "type": "bytes32"
        }
      ],
      "name": "logicalContracts",
      "outputs": [
        {
          "name": "",
          "type": "address"
        }
      ],
      "payable": false,
      "stateMutability": "view",
      "type": "function"
    },
    {
      "inputs": [
        {
          "name": "_ownerDao",
          "type": "address"
        }
      ],
      "payable": false,
      "stateMutability": "nonpayable",
      "type": "constructor"
    },
    {
      "anonymous": false,
      "inputs": [
        {
          "indexed": true,
          "name": "_contractName",
          "type": "string"
        },
        {
          "indexed": true,
          "name": "_contractAddress",
          "type": "address"
        }
      ],
      "name": "AddLogicalContractLog",
      "type": "event"
    },
    {
      "anonymous": false,
      "inputs": [
        {
          "indexed": true,
          "name": "_contractName",
          "type": "string"
        },
        {
          "indexed": true,
          "name": "_contractAddress",
          "type": "address"
        }
      ],
      "name": "AddStorageContractLog",
      "type": "event"
    },
    {
      "anonymous": false,
      "inputs": [
        {
          "indexed": true,
          "name": "_contractName",
          "type": "string"
        },
        {
          "indexed": true,
          "name": "_previousAddress",
          "type": "address"
        },
        {
          "indexed": true,
          "name": "_newContractAddress",
          "type": "address"
        }
      ],
      "name": "UpdateLogicalContractLog",
      "type": "event"
    },
    {
      "anonymous": false,
      "inputs": [
        {
          "indexed": true,
          "name": "_contractName",
          "type": "string"
        },
        {
          "indexed": true,
          "name": "_previousAddress",
          "type": "address"
        },
        {
          "indexed": true,
          "name": "_newContractAddress",
          "type": "address"
        }
      ],
      "name": "UpdateStorageContractLog",
      "type": "event"
    },
    {
      "anonymous": false,
      "inputs": [
        {
          "indexed": true,
          "name": "_storageContractName",
          "type": "address"
        },
        {
          "indexed": true,
          "name": "_logicalContractName",
          "type": "address"
        },
        {
          "indexed": false,
          "name": "_previous",
          "type": "bool"
        },
        {
          "indexed": false,
          "name": "_isAllowed",
          "type": "bool"
        }
      ],
      "name": "SetAllowedContractsLog",
      "type": "event"
    },
    {
      "anonymous": false,
      "inputs": [
        {
          "indexed": true,
          "name": "previousOwner",
          "type": "address"
        },
        {
          "indexed": true,
          "name": "newOwner",
          "type": "address"
        }
      ],
      "name": "OwnershipTransferred",
      "type": "event"
    },
    {
      "constant": false,
      "inputs": [
        {
          "name": "_contractName",
          "type": "string"
        },
        {
          "name": "_contractAddress",
          "type": "address"
        }
      ],
      "name": "addLogicalContract",
      "outputs": [],
      "payable": false,
      "stateMutability": "nonpayable",
      "type": "function"
    },
    {
      "constant": false,
      "inputs": [
        {
          "name": "_contractName",
          "type": "string"
        },
        {
          "name": "_contractAddress",
          "type": "address"
        }
      ],
      "name": "addStorageContract",
      "outputs": [],
      "payable": false,
      "stateMutability": "nonpayable",
      "type": "function"
    },
    {
      "constant": false,
      "inputs": [
        {
          "name": "_contractName",
          "type": "string"
        },
        {
          "name": "_newContractAddress",
          "type": "address"
        }
      ],
      "name": "updateLogicalContract",
      "outputs": [],
      "payable": false,
      "stateMutability": "nonpayable",
      "type": "function"
    },
    {
      "constant": false,
      "inputs": [
        {
          "name": "_contractName",
          "type": "string"
        },
        {
          "name": "_newContractAddress",
          "type": "address"
        }
      ],
      "name": "updateStorageContract",
      "outputs": [],
      "payable": false,
      "stateMutability": "nonpayable",
      "type": "function"
    },
    {
      "constant": false,
      "inputs": [
        {
          "name": "_contractName",
          "type": "string"
        }
      ],
      "name": "deleteLogicalContract",
      "outputs": [],
      "payable": false,
      "stateMutability": "nonpayable",
      "type": "function"
    },
    {
      "constant": false,
      "inputs": [
        {
          "name": "_contractName",
          "type": "string"
        }
      ],
      "name": "deleteStorageContract",
      "outputs": [],
      "payable": false,
      "stateMutability": "nonpayable",
      "type": "function"
    },
    {
      "constant": false,
      "inputs": [
        {
          "name": "_storageContractName",
          "type": "string"
        },
        {
          "name": "_logicalContractName",
          "type": "string"
        },
        {
          "name": "_isAllowed",
          "type": "bool"
        }
      ],
      "name": "setAllowedContracts",
      "outputs": [],
      "payable": false,
      "stateMutability": "nonpayable",
      "type": "function"
    },
    {
      "constant": false,
      "inputs": [
        {
          "name": "_contractByteCode",
          "type": "bytes"
        },
        {
          "name": "_amount",
          "type": "uint256"
        },
        {
          "name": "_contractName",
          "type": "string"
        },
        {
          "name": "_contractType",
          "type": "uint8"
        }
      ],
      "name": "deployAndAddContract",
      "outputs": [],
      "payable": true,
      "stateMutability": "payable",
      "type": "function"
    },
    {
      "constant": false,
      "inputs": [
        {
          "name": "_contractByteCode",
          "type": "bytes"
        },
        {
          "name": "_amount",
          "type": "uint256"
        },
        {
          "name": "_contractName",
          "type": "string"
        },
        {
          "name": "_contractType",
          "type": "uint8"
        }
      ],
      "name": "deployAndUpdateContract",
      "outputs": [],
      "payable": true,
      "stateMutability": "payable",
      "type": "function"
    }
  ],
  "bytecode": "0x608060405234801561001057600080fd5b506040516020806117fa8339810180604052602081101561003057600080fd5b505180600160a060020a038116151561004857600080fd5b60008054600160a060020a031916600160a060020a03831690811782556040519091907f8be0079c531659141344cd1fd0a4f28419497f9722a3daafe3b4186f6b6457e0908290a35050611759806100a16000396000f3fe6080604052600436106100da5763ffffffff7c01000000000000000000000000000000000000000000000000000000006000350416631445416c81146100df5780634e68b1f51461016757806366fafd75146101ed57806367d3b225146102205780636fffb9061461029d5780638a231aff146102c65780639ae8269314610343578063a165437914610414578063b01777a61461044f578063bd0c01e614610589578063d59de8601461060f578063df71107b14610655578063f270da7b1461078f578063fe491b4d146107a4578063fe894e301461082a575b600080fd5b3480156100eb57600080fd5b506101656004803603604081101561010257600080fd5b81019060208101813564010000000081111561011d57600080fd5b82018360208201111561012f57600080fd5b8035906020019184600183028401116401000000008311171561015157600080fd5b919350915035600160a060020a0316610854565b005b34801561017357600080fd5b506101656004803603604081101561018a57600080fd5b8101906020810181356401000000008111156101a557600080fd5b8201836020820111156101b757600080fd5b803590602001918460018302840111640100000000831117156101d957600080fd5b919350915035600160a060020a031661097f565b3480156101f957600080fd5b506101656004803603602081101561021057600080fd5b5035600160a060020a0316610aad565b34801561022c57600080fd5b506101656004803603602081101561024357600080fd5b81019060208101813564010000000081111561025e57600080fd5b82018360208201111561027057600080fd5b8035906020019184600183028401116401000000008311171561029257600080fd5b509092509050610acc565b3480156102a957600080fd5b506102b2610ba7565b604080519115158252519081900360200190f35b3480156102d257600080fd5b50610165600480360360208110156102e957600080fd5b81019060208101813564010000000081111561030457600080fd5b82018360208201111561031657600080fd5b8035906020019184600183028401116401000000008311171561033857600080fd5b509092509050610bb8565b34801561034f57600080fd5b506101656004803603606081101561036657600080fd5b81019060208101813564010000000081111561038157600080fd5b82018360208201111561039357600080fd5b803590602001918460018302840111640100000000831117156103b557600080fd5b9193909290916020810190356401000000008111156103d357600080fd5b8201836020820111156103e557600080fd5b8035906020019184600183028401116401000000008311171561040757600080fd5b9193509150351515610c92565b34801561042057600080fd5b506102b26004803603604081101561043757600080fd5b50600160a060020a0381358116916020013516610e5e565b6101656004803603608081101561046557600080fd5b81019060208101813564010000000081111561048057600080fd5b82018360208201111561049257600080fd5b803590602001918460018302840111640100000000831117156104b457600080fd5b91908080601f0160208091040260200160405190810160405280939291908181526020018383808284376000920191909152509295843595909490935060408101925060200135905064010000000081111561050f57600080fd5b82018360208201111561052157600080fd5b8035906020019184600183028401116401000000008311171561054357600080fd5b91908080601f0160208091040260200160405190810160405280939291908181526020018383808284376000920191909152509295505050903560ff169150610e7e9050565b34801561059557600080fd5b50610165600480360360408110156105ac57600080fd5b8101906020810181356401000000008111156105c757600080fd5b8201836020820111156105d957600080fd5b803590602001918460018302840111640100000000831117156105fb57600080fd5b919350915035600160a060020a0316610ffd565b34801561061b57600080fd5b506106396004803603602081101561063257600080fd5b5035611100565b60408051600160a060020a039092168252519081900360200190f35b6101656004803603608081101561066b57600080fd5b81019060208101813564010000000081111561068657600080fd5b82018360208201111561069857600080fd5b803590602001918460018302840111640100000000831117156106ba57600080fd5b91908080601f0160208091040260200160405190810160405280939291908181526020018383808284376000920191909152509295843595909490935060408101925060200135905064010000000081111561071557600080fd5b82018360208201111561072757600080fd5b8035906020019184600183028401116401000000008311171561074957600080fd5b91908080601f0160208091040260200160405190810160405280939291908181526020018383808284376000920191909152509295505050903560ff16915061111b9050565b34801561079b57600080fd5b506106396112c8565b3480156107b057600080fd5b50610165600480360360408110156107c757600080fd5b8101906020810181356401000000008111156107e257600080fd5b8201836020820111156107f457600080fd5b8035906020019184600183028401116401000000008311171561081657600080fd5b919350915035600160a060020a03166112d7565b34801561083657600080fd5b506106396004803603602081101561084d57600080fd5b50356113da565b61085c610ba7565b151561086757600080fd5b80600160a060020a03811615156108b6576040805160e560020a62461bcd028152602060048201526018602482015260008051602061170e833981519152604482015290519081900360640190fd5b60006108f785858080601f0160208091040260200160405190810160405280939291908181526020018383808284376000920191909152506113f592505050565b600081815260016020526040812054919250600160a060020a03909116906109229083908690611467565b83600160a060020a031681600160a060020a03168787604051808383808284376040519201829003822094507f334b59d28fe8a76e366e86523e769a08e91ce363e8c2b7e9c0999736f465274a93506000925050a4505050505050565b610987610ba7565b151561099257600080fd5b80600160a060020a03811615156109e1576040805160e560020a62461bcd028152602060048201526018602482015260008051602061170e833981519152604482015290519081900360640190fd5b6000610a2285858080601f0160208091040260200160405190810160405280939291908181526020018383808284376000920191909152506113f592505050565b600081815260016020819052604090912054919250600160a060020a0390911690610a509083908690611467565b83600160a060020a031681600160a060020a03168787604051808383808284376040519201829003822094507f2bf5a6aa2143aaf3f5dba3acc02c91604a6331210a755fa001b89f73b919e44393506000925050a4505050505050565b610ab5610ba7565b1515610ac057600080fd5b610ac9816115a6565b50565b610ad4610ba7565b1515610adf57600080fd5b6000610b2083838080601f0160208091040260200160405190810160405280939291908181526020018383808284376000920191909152506113f592505050565b6000818152600160208190526040822054929350600160a060020a0390921691610b4b918491611467565b6000600160a060020a031681600160a060020a03168585604051808383808284376040519201829003822094507f2bf5a6aa2143aaf3f5dba3acc02c91604a6331210a755fa001b89f73b919e44393506000925050a450505050565b600054600160a060020a0316331490565b610bc0610ba7565b1515610bcb57600080fd5b6000610c0c83838080601f0160208091040260200160405190810160405280939291908181526020018383808284376000920191909152506113f592505050565b600081815260016020526040812054919250600160a060020a0390911690610c3690839080611467565b6000600160a060020a031681600160a060020a03168585604051808383808284376040519201829003822094507f334b59d28fe8a76e366e86523e769a08e91ce363e8c2b7e9c0999736f465274a93506000925050a450505050565b610c9a610ba7565b1515610ca557600080fd5b6000610ce686868080601f0160208091040260200160405190810160405280939291908181526020018383808284376000920191909152506113f592505050565b90506000610d2985858080601f0160208091040260200160405190810160405280939291908181526020018383808284376000920191909152506113f592505050565b600081815260016020526040902054909150600160a060020a031615801590610d685750600082815260026020526040902054600160a060020a031615155b1515610dbe576040805160e560020a62461bcd02815260206004820152601660248201527f436f6e7472616374206e6f742072656769737472656400000000000000000000604482015290519081900360640190fd5b6000828152600260209081526040808320548484526001835281842054600160a060020a03918216808652600385528386209290911680865291845293829020805488151560ff1982168117909255835160ff9091168015158252948101919091528251919392849286927f7ef49d3e2e36476a946783e4bab2d88c69cf2ef3bf5b5805cc554d7c4f55a19a92908290030190a350505050505050505050565b600360209081526000928352604080842090915290825290205460ff1681565b610e86610ba7565b1515610e9157600080fd5b600084516020860185f09050803b15600181146100da57506000610eb4846113f5565b9050610ec1818385611623565b6000836001811115610ecf57fe5b1415610f675781600160a060020a0316846040518082805190602001908083835b60208310610f0f5780518252601f199092019160209182019101610ef0565b5181516020939093036101000a60001901801990911692169190911790526040519201829003822093507fa469426f29a95a5b0c753afa85d156799f3e46878b195816856db7c7b3a3675092506000919050a3610ff5565b81600160a060020a0316846040518082805190602001908083835b60208310610fa15780518252601f199092019160209182019101610f82565b5181516020939093036101000a60001901801990911692169190911790526040519201829003822093507fc0aade3c0dc4682590363687cc3b92c44bc3439192f7b4670fdd7abbf2ca651892506000919050a35b505050505050565b611005610ba7565b151561101057600080fd5b80600160a060020a038116151561105f576040805160e560020a62461bcd028152602060048201526018602482015260008051602061170e833981519152604482015290519081900360640190fd5b60006110a085858080601f0160208091040260200160405190810160405280939291908181526020018383808284376000920191909152506113f592505050565b90506110ae81846000611623565b82600160a060020a03168585604051808383808284376040519201829003822094507fa469426f29a95a5b0c753afa85d156799f3e46878b195816856db7c7b3a3675093506000925050a35050505050565b600260205260009081526040902054600160a060020a031681565b611123610ba7565b151561112e57600080fd5b600084516020860185f09050803b15600181146100da57506000611151846113f5565b600081815260016020526040902054909150600160a060020a0316611177828486611467565b600084600181111561118557fe5b14156112275782600160a060020a031681600160a060020a0316866040518082805190602001908083835b602083106111cf5780518252601f1990920191602091820191016111b0565b5181516020939093036101000a60001901801990911692169190911790526040519201829003822093507f334b59d28fe8a76e366e86523e769a08e91ce363e8c2b7e9c0999736f465274a92506000919050a46112bf565b82600160a060020a031681600160a060020a0316866040518082805190602001908083835b6020831061126b5780518252601f19909201916020918201910161124c565b5181516020939093036101000a60001901801990911692169190911790526040519201829003822093507f2bf5a6aa2143aaf3f5dba3acc02c91604a6331210a755fa001b89f73b919e44392506000919050a45b50505050505050565b600054600160a060020a031690565b6112df610ba7565b15156112ea57600080fd5b80600160a060020a0381161515611339576040805160e560020a62461bcd028152602060048201526018602482015260008051602061170e833981519152604482015290519081900360640190fd5b600061137a85858080601f0160208091040260200160405190810160405280939291908181526020018383808284376000920191909152506113f592505050565b905061138881846001611623565b82600160a060020a03168585604051808383808284376040519201829003822094507fc0aade3c0dc4682590363687cc3b92c44bc3439192f7b4670fdd7abbf2ca651893506000925050a35050505050565b600160205260009081526040902054600160a060020a031681565b600060208251108015611409575060008251115b151561145f576040805160e560020a62461bcd02815260206004820152601e60248201527f537472696e6720746f6f206c6f6e67206f72206e756c6c20737472696e670000604482015290519081900360640190fd5b506020015190565b600081600181111561147557fe5b141561151057600083815260016020526040902054600160a060020a031615156114d7576040805160e560020a62461bcd02815260206004820152601e60248201526000805160206116ee833981519152604482015290519081900360640190fd5b6000838152600160205260409020805473ffffffffffffffffffffffffffffffffffffffff1916600160a060020a0384161790556115a1565b600083815260026020526040902054600160a060020a0316151561156c576040805160e560020a62461bcd02815260206004820152601e60248201526000805160206116ee833981519152604482015290519081900360640190fd5b6000838152600260205260409020805473ffffffffffffffffffffffffffffffffffffffff1916600160a060020a0384161790555b505050565b600160a060020a03811615156115bb57600080fd5b60008054604051600160a060020a03808516939216917f8be0079c531659141344cd1fd0a4f28419497f9722a3daafe3b4186f6b6457e091a36000805473ffffffffffffffffffffffffffffffffffffffff1916600160a060020a0392909216919091179055565b600081600181111561163157fe5b141561169257600083815260016020526040902054600160a060020a0316156114d7576040805160e560020a62461bcd02815260206004820152601e60248201526000805160206116ee833981519152604482015290519081900360640190fd5b600083815260026020526040902054600160a060020a03161561156c576040805160e560020a62461bcd02815260206004820152601e60248201526000805160206116ee833981519152604482015290519081900360640190fdfe4c6f676963616c20636f6e747261637420616c726561647920616464656400007a65726f2061646472657373206e6f7420616c6c6f7765640000000000000000a165627a7a723058203d6b71769b2526c722481b20dc5a955565caee4fb73644f35342f8c563c2c9fe0029",
  "source": "pragma solidity ^0.5.0;\r\n\r\nimport \"../utils/StringAsKey.sol\";\r\n\r\nimport \"./IWfcRegistry.sol\";\r\n\r\n/** \r\n *@dev registry contract controlled by the Dao that contains the address of storage and logical contracts and their matchings\r\n*/\r\ncontract WfcRegistry is IWfcRegistry {\r\n  \r\n    using StringAsKey for string;\r\n\r\n    modifier notZeroAddress(address _address) {\r\n        require(_address != address(0), \"zero address not allowed\");\r\n        _;\r\n    }\r\n\r\n    /**\r\n     * @dev constructor that sets the Dao ownership\r\n     */\r\n    constructor(address _ownerDao) public OwnableDao(_ownerDao) {\r\n    }\r\n\r\n    /**\r\n     * @dev See {IWfcRegistry-addLogicalContract}\r\n     */\r\n    function addLogicalContract(string calldata _contractName, address payable _contractAddress) external onlyOwnerDao notZeroAddress(_contractAddress) {\r\n        bytes32 contractName = _contractName.convert();\r\n        _addContract(contractName, _contractAddress, ContractType.LOGICAL);\r\n        emit AddLogicalContractLog(_contractName, _contractAddress);\r\n    }\r\n\r\n    /**\r\n     * @dev See {IWfcRegistry-addStorageContract}\r\n     */\r\n    function addStorageContract(string calldata _contractName, address payable _contractAddress) external onlyOwnerDao notZeroAddress(_contractAddress) {\r\n        bytes32 contractName = _contractName.convert();\r\n        _addContract(contractName, _contractAddress, ContractType.STORAGE);\r\n        emit AddStorageContractLog(_contractName, _contractAddress);\r\n    }\r\n\r\n    /**\r\n     * @dev See {IWfcRegistry-updateLogicalContract}\r\n     */\r\n    function updateLogicalContract(string calldata _contractName, address payable _newContractAddress) external onlyOwnerDao notZeroAddress(_newContractAddress) {\r\n        bytes32 contractName = _contractName.convert();\r\n        address previousAddress = logicalContracts[contractName];\r\n        _updateContract(contractName, _newContractAddress, ContractType.LOGICAL);\r\n        emit UpdateLogicalContractLog(_contractName, previousAddress, _newContractAddress);\r\n    }\r\n\r\n    /*\r\n     * @dev See {IWfcRegistry-updateStorageContract}\r\n     */\r\n    function updateStorageContract(string calldata _contractName, address payable _newContractAddress) external onlyOwnerDao notZeroAddress(_newContractAddress) {\r\n        bytes32 contractName = _contractName.convert();\r\n        address previousAddress = logicalContracts[contractName];\r\n        _updateContract(contractName, _newContractAddress, ContractType.STORAGE);\r\n        emit UpdateStorageContractLog(_contractName, previousAddress, _newContractAddress);\r\n    }\r\n\r\n    /*\r\n     * @dev See {IWfcRegistry-deleteLogicalContract}\r\n     */\r\n    function deleteLogicalContract(string calldata _contractName) external onlyOwnerDao {\r\n        bytes32 contractName = _contractName.convert();\r\n        address previousAddress = logicalContracts[contractName];\r\n        _updateContract(contractName, address(0), ContractType.LOGICAL);\r\n        emit UpdateLogicalContractLog(_contractName, previousAddress, address(0));\r\n    }\r\n    \r\n    /*\r\n     * @dev See {IWfcRegistry-deleteStorageContract}\r\n     */\r\n    function deleteStorageContract(string calldata _contractName) external onlyOwnerDao {\r\n        bytes32 contractName = _contractName.convert();\r\n        address previousAddress = logicalContracts[contractName];\r\n        _updateContract(contractName, address(0), ContractType.STORAGE);\r\n        emit UpdateStorageContractLog(_contractName, previousAddress, address(0));\r\n    }\r\n\r\n    /*\r\n     * @dev See {IWfcRegistry-setAllowedContracts}\r\n     */\r\n    function setAllowedContracts(string calldata _storageContractName, string calldata _logicalContractName, bool _isAllowed) external onlyOwnerDao {\r\n        bytes32 storageContractName = _storageContractName.convert();\r\n        bytes32 logicalContractName = _logicalContractName.convert();\r\n        require(logicalContracts[logicalContractName] != address(0) && storageContracts[storageContractName] != address(0), \"Contract not registred\");\r\n        address storageAddress = storageContracts[storageContractName];\r\n        address logicalAddress = logicalContracts[logicalContractName];\r\n        bool previous = isAllowed[storageAddress][logicalAddress];\r\n        isAllowed[storageAddress][logicalAddress] = _isAllowed;\r\n        emit SetAllowedContractsLog(storageAddress, logicalAddress, previous, _isAllowed);\r\n    }\r\n\r\n    /*\r\n     * @dev See {IWfcRegistry-deployAndAddContract}\r\n     */\r\n    function deployAndAddContract(bytes memory _contractByteCode, uint256 _amount, string memory _contractName, ContractType _contractType) public payable onlyOwnerDao {\r\n        address payable target;\r\n        assembly {\r\n            target := create(_amount, add(_contractByteCode, 0x20), mload(_contractByteCode))\r\n            switch iszero(extcodesize(target))\r\n            case 1 {\r\n                // throw if contract failed to deploy\r\n                revert(0, 0)\r\n            }\r\n        }\r\n        bytes32 contractName = _contractName.convert();\r\n        _addContract(contractName, target, _contractType);\r\n        if (_contractType == ContractType.LOGICAL) {\r\n            emit AddLogicalContractLog(_contractName, target);\r\n        } else {\r\n            emit AddStorageContractLog(_contractName, target);\r\n        }\r\n    }\r\n\r\n    /*\r\n     * @dev See {IWfcRegistry-deployAndUpdateContract}\r\n     */\r\n    function deployAndUpdateContract(bytes memory _contractByteCode, uint256 _amount, string memory _contractName, ContractType _contractType) public payable onlyOwnerDao {\r\n        address payable target;\r\n        assembly {\r\n            target := create(_amount, add(_contractByteCode, 0x20), mload(_contractByteCode))\r\n            switch iszero(extcodesize(target))\r\n            case 1 {\r\n                // throw if contract failed to deploy\r\n                revert(0, 0)\r\n            }\r\n        }\r\n        bytes32 contractName = _contractName.convert();\r\n        address previousAddress = logicalContracts[contractName];\r\n        _updateContract(contractName, target, _contractType);\r\n        if (_contractType == ContractType.LOGICAL) {\r\n            emit UpdateLogicalContractLog(_contractName, previousAddress, target);\r\n        } else {\r\n            emit UpdateStorageContractLog(_contractName, previousAddress, target);\r\n        }\r\n    }\r\n    \r\n    /*\r\n     * @dev internal function that allows to add a contract in the registry\r\n     */\r\n    function _addContract(bytes32 _contractName, address payable _contractAddress, ContractType _contractType ) internal {\r\n        if (_contractType == ContractType.LOGICAL) {\r\n            require(logicalContracts[_contractName] == address(0), \"Logical contract already added\"); \r\n            logicalContracts[_contractName] = _contractAddress;\r\n        } else {\r\n            require(storageContracts[_contractName] == address(0), \"Logical contract already added\"); \r\n            storageContracts[_contractName] = _contractAddress;\r\n        }\r\n    }\r\n\r\n    /*\r\n     * @dev internal function that allows to update a contract in the registry\r\n     */\r\n    function _updateContract(bytes32 _contractName, address payable _newContractAddress, ContractType _contractType ) internal {\r\n        if (_contractType == ContractType.LOGICAL) {\r\n            require(logicalContracts[_contractName] != address(0), \"Logical contract already added\"); \r\n            logicalContracts[_contractName] = _newContractAddress;\r\n        } else {\r\n            require(storageContracts[_contractName] != address(0), \"Logical contract already added\"); \r\n            storageContracts[_contractName] = _newContractAddress;\r\n        }\r\n    }\r\n}\r\n\r\n\r\n",
  "sourcePath": "C:/Users/Alessandro/solidity_work/WFCplatform/contracts/Registry/WfcRegistry.sol",
  "compiler": {
    "name": "solc",
    "version": "0.5.0+commit.1d4f565a.Emscripten.clang"
  },
  "schemaVersion": "3.0.0",
  "updatedAt": "2019-11-26T02:01:06.855Z",
  "devdoc": {
    "methods": {
      "addLogicalContract(string,address)": {
        "details": "See {IWfcRegistry-addLogicalContract}\r"
      },
      "addStorageContract(string,address)": {
        "details": "See {IWfcRegistry-addStorageContract}\r"
      },
      "constructor": {
        "details": "constructor that sets the Dao ownership\r"
      },
      "getOwnerDao()": {
        "return": "the address of the owner.\r"
      },
      "isOwnerDao()": {
        "return": "true if `msg.sender` is the owner of the contract.\r"
      },
      "transferOwnershipDao(address)": {
        "details": "Allows the current owner to transfer control of the contract to a newOwner.\r",
        "params": {
          "newOwnerDao": "The address to transfer ownership to.\r"
        }
      },
      "updateLogicalContract(string,address)": {
        "details": "See {IWfcRegistry-updateLogicalContract}\r"
      }
    }
  },
  "userdoc": {
    "methods": {},
    "notice": "dev registry contract controlled by the Dao that contains the address of storage and logical contracts and their matchings\r"
  }
}